:020000040800F2
:10000000500C002001010008090100080B01000844
:100010000D0100080F010008110100080000000098
:1000200000000000000000000000000013010008B4
:10003000150100080000000017010008450F000826
:100040001B0100081B0100081B0100081B01000820
:100050001B0100081B0100081B0100081B01000810
:100060001B0100081B0100081B0100081B01000800
:100070001B0100081B0100081B0100081B010008F0
:100080001B0100081B0100081B0100081B010008E0
:100090001B0100081B0100081B0100081B010008D0
:1000A0001B0100081B0100081B0100081B010008C0
:1000B0001B0100081B0100081B0100081B010008B0
:1000C0001B0100081B0100081B0100081B010008A0
:1000D0001B01000825100008511000081B01000832
:1000E0001B0100081B0100081B010008DFF80CD0F1
:1000F00000F020FA0048004759140008500C002076
:100100000648804706480047FEE7FEE7FEE7FEE7B1
:10011000FEE7FEE7FEE7FEE7FEE7FEE7C50F0008A5
:10012000ED000008F0B480EA0102D40F4200B2EB07
:10013000410F02D20246084611464A0042D0C30D82
:10014000DDB2C1F3C752AD1A202D35DAC1F3160165
:1001500041F4000204B15242C5F1200602FA06F150
:100160002A411044B3EBD05F23D0C4B1012DA0EBE2
:10017000C35009DCF0BC4FF0004202EAC352DBB2CC
:1001800000F5000000F04AB9400000F1807000EB7B
:10019000C350A0F1807040EAD170490009E04908DD
:1001A00041EAC071A0EBC35000F50000400800EB2D
:1001B000C350F0BC00F029B96142012202EB4101B9
:1001C000001BF6E7F0BC704781F00041AAE780F021
:1001D0000040A7E780EA010210B502F000434000AA
:1001E00022D04A001FD0010E01EB1261C0F356006D
:1001F000C2F3560240F4000042F40002A0FB0220C9
:1002000000047F39140400D0401C50EA124001D48D
:100210004000491EC2B20C0604EBD010401C40083E
:10022000802A02D003E0002010BD20F00100002948
:1002300000DA0020184310BD2DE9F04D81EA0304D7
:1002400004F0004B21F0004514464FF0000A23F063
:10025000004150EA050220D054EA01021DD0C5F346
:100260000A570246C5F31303C1F31300C1F30A563C
:1002700040F4801543F48013A7EB0608101BD64604
:1002800008F2FD3873EB050002D308F1010801E024
:1002900092185B41B8F1000F03DA00200146BDE877
:1002A000F08D00204FF48011064684460EE0171BA7
:1002B00073EB050705D3121B63EB050306434CEAFA
:1002C000010C49084FEA300092185B4150EA0107DF
:1002D000EDD152EA030012D082EA040083EA05015C
:1002E000084305D0101BAB4106D20122002306E0D3
:1002F00000224FF0004302E06FF0010253101AEBAE
:1003000006004CEB085110EB0A0041EB0B01BDE875
:10031000F04D00F0B1B80EB5C10F80EAE0700844AE
:10032000CA07002140F233438DE80E000A460B460F
:1003300000F0B1F803B000BD00F0004220F0004032
:10034000C10DC0F3160040F400007F2901DA00203F
:100350007047962903DCC1F19601C84001E0963947
:100360008840002AF4D04042704701F0004330B486
:1003700021F0004150EA010206D00A0DA2F5607298
:10038000C1F31301002A02DC30BC00207047440F87
:1003900044EAC104C100E01830BC00EBC25000F0D8
:1003A00034B80000002801DBC0F10040002901DB67
:1003B000C1F1004181427047002801DBC0F10040DB
:1003C000002901DBC1F1004188427047202A04DB8B
:1003D000203A00FA02F1002070479140C2F1200358
:1003E00020FA03F3194390407047202A04DB203A97
:1003F00021FA02F00021704721FA02F3D040C2F145
:10040000200291400843194670470029A8BF704751
:10041000401C490008BF20F00100704710B4B0FA3A
:1004200080FC00FA0CF050EA010404BF10BC7047D5
:1004300049B1CCF1200421FA04F411FA0CF118BFEF
:10044000012121430843A3EB0C01CB1D4FEA0061BE
:100450004FEA102042BF002010BC704700EBC35091
:1004600010440029A4BF10BC7047401C490008BFBD
:1004700020F0010010BC704710B5141E73F1000489
:1004800008DA401C41F1000192185B411A4301D186
:1004900020F0010010BD2DE9F04D92469B4611B1B0
:1004A000B1FA81F202E0B0FA80F220329046FFF712
:1004B0008DFF04460F4640EA0A0041EA0B0153460D
:1004C0005A46084313D0114653EA010019D0C8F127
:1004D00040025046FFF789FF05460E4650465946F2
:1004E0004246FFF773FF084305D0012004E0204691
:1004F0003946BDE8F08D0020054346EAE0762C43FE
:1005000037430A986305E40AA0EB08000022FD0ABD
:1005100044EA47540A3002D500200146E9E70105C4
:1005200010196941DDE9084500196941BDE8F04D40
:10053000A2E70000064C074D06E0E06840F001032A
:1005400094E8070098471034AC42F6D3FFF7D2FD89
:10055000281600084816000870B590B004466A4690
:1005600032210DA800F094FB0DA9204600F00DF8F3
:100570000DA800F049FB401E86B231460DA800F0E0
:1005800071FB0546284610B070BD70B504460D4697
:100590002188284600F0FDFBA178284600F0D9FB11
:1005A000E178284600F0D5FBE278211D284600F0CE
:1005B000D8FB284600F042FB06463146284600F0AC
:1005C000C8FB70BD2DE9F74F90B0144601200F9085
:1005D00011AB01220A21109800F002F901A910982C
:1005E00000F062F88346BBF1000F1DD19DF8089022
:1005F0009DF84400814503D0072013B0BDE8F08F7B
:100600009DF809109DF80A0041EA00200FFA80FACF
:100610005046FFF780FE07460022044BFFF70CFE12
:100620000546FFF7A2FE20605846E6E7000024409A
:100630002DE9F74F90B0144601200F9011AB012225
:100640001021109800F0CCF801A9109800F02CF8B7
:100650008346BBF1000F23D19DF808909DF844001C
:10066000814503D0072013B0BDE8F08F9DF8091035
:100670009DF80A0041EA00219DF80B0041EA004183
:100680009DF80C0041EA006A5046FFF744FE074619
:100690000022044BFFF7D0FD0546FFF766FE206001
:1006A0005846E0E7000024402DE9F04105460C469D
:1006B000002084F8370000270026642000F010FC9A
:1006C00087E0A86800F0A0FA00B982E094F837004B
:1006D00000F00800C8B1A86800F035FB04F8360F38
:1006E000607840F010006070363C2046FFF734FF21
:1006F00094F83610884204D000F002FC0620BDE8D1
:10070000F08100F0FDFB0020F9E794F8370000F0DD
:10071000040080B1A86800F016FB211DC855781CA4
:10072000C7B2E078B84253D194F8370040F00800DF
:1007300084F837004CE094F8370000F0020088B1EC
:10074000A86800F000FBE070E0782D2803DD00F0E1
:10075000D7FB0520D3E794F8370040F0040084F875
:10076000370035E094F8370000F0010088B1A86840
:1007700000F0E9FAA070A078112803DD00F0C0FBBA
:100780000420BCE794F8370040F0020084F83700FA
:100790001EE03EB9A86800F0D6FA0646052E17D02E
:1007A000002615E0052E12D1A86800F0CCFA46EA22
:1007B000002641F60540864201D0002608E026804A
:1007C00094F8370040F0010084F8370000E000267C
:1007D00000BF00F0A3FB00283FF473AF02208EE7B8
:1007E000F0B58FB005460E4614461F4644F612403B
:1007F000ADF804008DF806608DF80740002003E096
:100800003A5C02A90A54401CA042F9DB01A86968BD
:10081000FFF7BBFE284600F0EFFD0FB0F0BD000073
:100820002DE9F04F89B08046894614461D4612AE28
:1008300096E8C00C0B20089005AA0B2102A800F036
:1008400027FA24492046FFF7B7FD01D2214C05E0E5
:1008500021492046FFF7A6FD00D21F4C142E00DAD6
:100860001426142F00DA1427494602A800F071FA62
:1008700021461A48FFF7AEFC0090FFF75DFD00B27D
:100880000146019002A800F07BFA294602A800F078
:1008900080FA314602A800F07CFA394602A800F03E
:1008A00078FA514602A800F074FA0DF115030B22F4
:1008B00011464046FFF794FFBBF1000F08D000231C
:1008C00022464946404600F00BF809B0BDE8F08FDB
:1008D0000020FAE700003443000034C30000204148
:1008E0002DE9F84F81468A4615461E46002727E027
:1008F0002EB16A4651464846FFF79AFE04E06A4622
:1009000051464846FFF75EFE28460099FFF75CFC1B
:10091000804628F0004400BF4FF080412046FFF79A
:1009200041FD02D80020BDE8F88F781C87B242F262
:100930001070874201DB0120F5E7642000F0F8FA2F
:10094000D6E72DE9F04102460025002600200023CD
:100950000024002791F803C00CF00F0591F803C0A4
:100960000CF0100CBCF1000F03D091F802C04CEA5F
:10097000050591F800C0BCF1000F31D014680020CB
:100980002BE04FF0010C0CFA00F3B1F800C00CEAB8
:1009900003069E4220D183004FF00F0C0CFA03F7A0
:1009A000BC4305FA03FC4CEA040491F803C0BCF113
:1009B000280F06D14FF0010C0CFA00FCC2F814C04D
:1009C0000AE091F803C0BCF1480F05D14FF0010CCB
:1009D0000CFA00FCC2F810C0401C0828D1D31460E7
:1009E000B1F800C0BCF1FF0F34DD546800202EE0E8
:1009F00000F1080C4FF0010808FA0CF3B1F800C040
:100A00000CEA03069E4221D183004FF00F0C0CFA32
:100A100003F7BC4305FA03FC4CEA040491F803C055
:100A2000BCF1280F05D100F1080C08FA0CF8C2F847
:100A3000148091F803C0BCF1480F07D100F1080CF5
:100A40004FF0010808FA0CF8C2F81080401C082882
:100A5000CED35460BDE8F08170B5002100230F2291
:100A6000C47804B3154C246804F4E064C4F5E0646D
:100A7000210AC1F10403CA40447804FA03F18478DE
:100A80001440214309010E4C0678A155047804F066
:100A90001F050124AC4005786D11AD0005F1E0257E
:100AA000C5F8004109E0047804F01F050124AC40BA
:100AB000044D0678761145F8264070BD0CED00E037
:100AC00000E400E080E100E002490143024A1160D5
:100AD000704700000000FA050CED00E029B1064A5D
:100AE000D2690243044BDA6104E0034AD2698243CB
:100AF000014BDA61704700000010024029B1064A3C
:100B000092690243044B9A6104E0034A926982436A
:100B1000014B9A61704700000010024030B500217F
:100B20000022002400232D4D6D6805F00C0121B139
:100B3000042905D0082923D105E0294D056022E0CC
:100B4000274D05601FE0254D6D6805F47012234D9B
:100B50006D6805F48034022505EB92421CB9214DE5
:100B6000554305600BE01D4D6D6805F400351DB162
:100B70001C4D5543056002E0194D5543056002E0E8
:100B8000174D056000BF00BF144D6D6805F0F00102
:100B90000909154D6B5C0568DD4045600F4D6D68BA
:100BA00005F4E061090A104D6B5C4568DD40856025
:100BB0000A4D6D6805F46051C90A0B4D6B5C4568C0
:100BC000DD40C560054D6D6805F44041890B074D5A
:100BD0006B5CC568B5FBF3F5056130BD00100240E4
:100BE00000127A0000093D000800002018000020D3
:100BF00030B50446204600F01CF80546204600F0BB
:100C000003F8281A80B230BD00B502469088D1881A
:100C1000884209DD104600F00CF89188D388C91A83
:100C2000491E401A80B200BDD0889188401A80B217
:100C3000F9E701460889401E80B27047F0B50646C4
:100C40003046FFF7E1FF07460025002406E0A1B289
:100C5000304600F007F82844C5B2641CBC42F6DBFD
:100C6000E8B2F0BD70B504460D462046FFF7CCFF54
:100C7000A84201DC002070BDA0882844401C2189C6
:100C800090FBF1F201FB120086B22068805DF2E772
:100C900030B50B46026000218180C180591C018162
:100CA000002104E0002405686C544C1CA1B20489A6
:100CB0008C42F7DC30BD10B504462046FFF798FFA4
:100CC00002462046FFF7B5FF824201D1012010BD48
:100CD0000020FCE710B504462046FFF789FF08B95D
:100CE000012010BD0020FCE730B504462046FFF788
:100CF000E2FF08B1002030BDA088401C218990FB94
:100D0000F1F201FB1200A080A1882068455C002060
:100D1000A288216888542846EDE730B504460D4680
:100D20002046FFF7D7FF10B12046FFF7DDFFE08830
:100D3000401C218990FBF1F201FB1200E080E18868
:100D40002068455430BD10B504462046FFF7CCFF5F
:100D500010BD30B504460D4629462046FFF7DDFF9D
:100D600030BDF0B507460D461646002405E0295D66
:100D70003846FFF7D2FF601C84B2B442F7DBF0BD07
:100D800033B5044601AD022229462046FFF7E9FFAC
:100D90003CBD33B5044601AD022229462046FFF78B
:100DA000E0FF3CBD10B500F001F810BD0CB500200F
:100DB000019000903348006840F480303149086069
:100DC00000BF3048006800F4003000900198401CDB
:100DD0000190009818B90198B0F5A06FF1D1294899
:100DE000006800F4003010B10120009001E0002004
:100DF00000900098012843D12348006840F010007B
:100E0000214908600846006820F003000860084691
:100E1000006840F0020008601A48406819494860BC
:100E20000846406848600846406840F48060486072
:100E30000846406820F47C1048600846406840F44A
:100E4000E81048600846006840F08070086000BF05
:100E50000C48006800F000700028F9D0094840688C
:100E600020F00300074948600846406840F002004F
:100E7000486000BF0348406800F00C000828F9D122
:100E80000CBD0000001002400020024030B50146B9
:100E9000B1F1807F01D3012030BD21F07F40401EA1
:100EA0004FF0E022506150170F22002807DA130795
:100EB0001D0E094B00F00F04241F1D5503E01307FE
:100EC0001C0E064B1C5400BF00204FF0E022906126
:100ED000072010610020DFE718ED00E000E400E0EB
:100EE00001B50649009808604FF0E020006940F025
:100EF00001004FF0E021086108BD0000040000205F
:100F00000020054908604FF0E020006920F0010052
:100F10004FF0E0210861704704000020034800689A
:100F200008B9012070470020FCE700000400002001
:100F300001B503490098086000F02CF808BD0000D6
:100F4000040000200648006828B105480068401EDB
:100F50000349086002E00020014908607047000072
:100F60000400002010B50A4800684FF47A71B0FB05
:100F7000F1F42046FFF78AFF08B100BFFEE74FF00B
:100F8000E020006920F001004FF0E021086110BD71
:100F90001C0000204FF0E020006940F001004FF0FD
:100FA000E021086100BF064800680028FBD14FF02F
:100FB000E020006920F001004FF0E0210861704757
:100FC0000400002010B51348006840F001001149EA
:100FD000086008464068104908400E4948600846C5
:100FE00000680E4908400B4908600846006820F474
:100FF000802008600846406820F4FE0048604FF4F6
:101000001F008860FFF7CEFE4FF0006004490860C3
:1010100010BD0000001002400000FFF8FFFFF6FEC8
:1010200008ED00E010B540F22551074800F03FF808
:1010300040B1054800F0F6F8C4B20449886821467A
:10104000FFF76BFE10BD00000038014034040020A3
:1010500010B540F22551074800F029F848B106497B
:10106000086800F0DFF8C4B2034988682146FFF73A
:1010700054FE10BD004400404408002021B1828984
:1010800042F40052828104E082894DF6FF731A40D7
:101090008281704702460020B1F5007F00D100BF79
:1010A00013880B400BB1012000E00020704770B5A1
:1010B0000246002400230025002040F66A16B142B3
:1010C00000D100BFC1F3421501F01F03012606FA4B
:1010D00003F3012D02D19689334006E0022D02D19F
:1010E000168A334001E0968A33400C12012606FA34
:1010F00004F41688344013B10CB1012000E0002044
:1011000070BDF0B50346002400260025002040F6FF
:101110006A17B94200D100BF1846C1F3421401F06A
:101120001F06012707FA06F5012C01D10C3004E057
:10113000022C01D1103000E014301AB107682F439F
:10114000076002E00768AF430760F0BD2DE9F04794
:1011500086B005460E460024A24600BFA1460027E1
:10116000B08900B100BF2F462C8A4CF6FF700440B6
:10117000F08804432C82AC894EF6F3100440B0880A
:1011800031890843718908430443AC81AC8A4FF626
:10119000FF400440B0890443AC8201A8FFF7BEFCC5
:1011A0001F48874202D1DDF810A001E0DDF80CA055
:1011B000A88900F4004040B10AEBCA0000EB0A1015
:1011C00031684900B0FBF1F807E00AEBCA0000EB18
:1011D0000A1031688900B0FBF1F86420B8FBF0F028
:1011E00004012009642101FB1089A88900F4004052
:1011F00040B1322000EBC900B0FBF1F000F0070075
:10120000044308E0322000EB09106421B0FBF1F048
:1012100000F00F0004432C8106B0BDE8F087000009
:101220000038014001468888C0F308007047C1F3C8
:10123000080282807047000000B587B061486249AB
:101240000860624A4FF4FA716148FFF721FD614A74
:101250004FF4FA716048FFF71BFD5F485A498860F8
:101260005B48486001218803FFF748FC0121042006
:10127000FFF744FC4FF40070ADF8180003208DF820
:101280001A0018208DF81B0006A95448FFF759FBD7
:101290004FF48060ADF8180004208DF81B0006A9FB
:1012A0004E48FFF74EFB4FF4E13002900020ADF8BE
:1012B0000C00ADF80E00ADF81000ADF814000C20D5
:1012C000ADF812004FF4A060FFF7FEFB25208DF86B
:1012D000040001208DF805008DF806008DF8070048
:1012E00001A8FFF7B9FB02A93648FFF72FFF01223B
:1012F00040F225513348FFF704FF01213148FFF741
:10130000BDFE374837490860374A4FF4FA7137480D
:10131000FFF7BEFC364A4FF4FA713648FFF7B8FCC7
:101320003448304988603148486001214804FFF75B
:10133000D5FB01210420FFF7E1FB0420ADF81800E4
:1013400003208DF81A0018208DF81B0006A92348E9
:10135000FFF7F7FA0820ADF8180004208DF81B00FD
:1013600006A91E48FFF7EDFA26208DF80400032099
:101370008DF805008DF8060001208DF8070001A802
:10138000FFF76AFB4FF4E13002900020ADF80C004B
:10139000ADF80E00ADF81000ADF814000C20ADF85B
:1013A000120002A90E48FFF7D1FE012240F225519A
:1013B0000B48FFF7A6FE01210948FFF75FFE07B0C3
:1013C00000BD00000038014034040020300000203F
:1013D0001C040020250200202804002000080140F1
:1013E0000044004044080020400400202C08002055
:1013F000350600203808002070B5044607E0606814
:10140000FFF772FC05462946206800F006F8606880
:10141000FFF7FAFB0028F2D170BD70B504460D4607
:1014200029462046FFF703FF00BF80212046FFF733
:1014300031FE0028F9D070BD02E008C8121F08C1B3
:10144000002AFAD170477047002001E001C1121F45
:10145000002AFBD1704700001FB5FFF783FDFFF79F
:10146000EBFE002064220092CDE901204FF4FA73D4
:10147000644A0146039064480068FFF7D1F90020F0
:1014800064220092CDE901204FF4FA730246012153
:1014900003905D480068FFF7C3F94FF4FA60FFF767
:1014A00047FDADE001200021642200924FF49673C5
:1014B000CDE901210390554A53480068FFF7B0F980
:1014C000012000214FF4967200925300CDE90121D2
:1014D00003904F4A4C480068FFF7A2F90120002111
:1014E000642200924FF49673CDE901210390494A9A
:1014F00045480068FFF794F901200021642200921A
:101500004FF49673CDE901210390434A01463E48CA
:101510000068FFF785F9012000214FF496720092D0
:101520005300CDE9012103903C4A0146364800684A
:10153000FFF776F901200021642200924FF49673A0
:10154000CDE901210390364A01462F480068FFF794
:1015500067F901200021642200924FF49673CDE9CF
:1015600001210390294A28480068FFF759F9012012
:1015700000214FF4967200925300CDE901210390AF
:10158000234A21480068FFF74BF90120002164221B
:1015900000924FF49673CDE901210390214A1A4835
:1015A0000068FFF73DF901200021642200924FF40A
:1015B0009673CDE901210390174A0146124800684D
:1015C000FFF72EF9012000214FF49672009253008C
:1015D000CDE901210390114A01460B480068FFF74D
:1015E0001FF901200021642200924FF49673CDE987
:1015F000012103900A4A014603480068FFF710F9E9
:1016000050E70000000020C1000000200000F0C1F1
:101610000000F041000010C10000A0C10000A04186
:101620000000204000002041481600080000002073
:101630003000000038140008781600083000002040
:10164000200C0000481400083404002000000000B2
:101650000000000001020304010203040607080958
:101660000204060800A24A04000000000000000076
:0816700001020304060708094A
:0400000508000101ED
:00000001FF
