:020000040800F2
:10000000D810002001010008090100080B010008B8
:100010000D0100080F010008110100080000000098
:1000200000000000000000000000000013010008B4
:10003000150100080000000017010008B9180008A9
:100040001B0100081B0100081B0100081B01000820
:100050001B0100081B0100081B0100081B01000810
:100060001B0100081B0100081B0100081B01000800
:100070001B0100081B0100081B0100081B010008F0
:100080001B0100081B0100081B0100081B010008E0
:100090001B0100081B0100081B0100081B010008D0
:1000A0001B0100081B0100081B0100081B010008C0
:1000B0001B0100081B0100081B0100081B010008B0
:1000C0001B0100081B0100081B0100081B010008A0
:1000D0001B01000899190008C5190008F11900084A
:1000E0001B0100081B0100081B010008DFF80CD0F1
:1000F00000F0DAFB00480047D51E0008D8100020A9
:100100000648804706480047FEE7FEE7FEE7FEE7B1
:10011000FEE7FEE7FEE7FEE7FEE7FEE73919000827
:10012000ED000008F0B480EA0102D40F4200B2EB07
:10013000410F02D20246084611464A0042D0C30D82
:10014000DDB2C1F3C752AD1A202D35DAC1F3160165
:1001500041F4000204B15242C5F1200602FA06F150
:100160002A411044B3EBD05F23D0C4B1012DA0EBE2
:10017000C35009DCF0BC4FF0004202EAC352DBB2CC
:1001800000F5000000F004BB400000F1807000EBBF
:10019000C350A0F1807040EAD170490009E04908DD
:1001A00041EAC071A0EBC35000F50000400800EB2D
:1001B000C350F0BC00F0E3BA6142012202EB4101FE
:1001C000001BF6E7F0BC704781F00041AAE780F021
:1001D0000040A7E780EA010210B502F000434000AA
:1001E00022D04A001FD0010E01EB1261C0F356006D
:1001F000C2F3560240F4000042F40002A0FB0220C9
:1002000000047F39140400D0401C50EA124001D48D
:100210004000491EC2B20C0604EBD010401C40083E
:10022000802A02D003E0002010BD20F00100002948
:1002300000DA0020184310BD30B480EA010202F059
:10024000004530F0004221F0004013D090B1C30DC2
:10025000D40DC2F31601C0F31600E41A41F40001F4
:1002600040F400027D34914201D3641C00E0490057
:10027000002C02DA30BC002070474FF4000000234D
:10028000914201D3891A034340084FEA4101F7D153
:1002900051B1914202D14FF0004105E002D24FF03E
:1002A000010101E06FF0010103EBC450284430BCB0
:1002B00000F065BA2DE9FE4F804681EA0300C00FC9
:1002C0000C46009021F0004123F00045B8EB0200FD
:1002D000A94105D24046214690461C460B4602469F
:1002E00023F00040104347D0270DC7F30A00C3F3A3
:1002F0000A510290401A019040286BDAC3F31300B0
:1003000040F4801B0098924620B10023D2EB030AF0
:1003100063EB0B0B01985946C0F14002504600F0C8
:10032000FDF906460D4650465946019A00F015FA69
:1003300010EB08006141002487EA115284EAE77358
:100340001A4340D0009A62B3019A012A4FEA075239
:1003500015DC001B61EB02014FF0004202EA07527C
:10036000CDE90042001C41F5801132462B4600F0D9
:100370004CFA03B0BDE8F08F40462146F9E7001B78
:1003800061EB0201001C41F5801300185B4120184D
:10039000A2F5001747EB030140EAD570B6196D418D
:1003A00011E06D084FEA360645EAC0754FEA07527C
:1003B000001B61EB0201001C41F5801149084FEA66
:1003C00030000019514132462B4603B0BDE8F04FD2
:1003D00000F00CBA0098012240000023D0EB02028A
:1003E00063EBE073009821464FEAE074B8EB00003D
:1003F00061EB0401E9E783F000435BE781F0004132
:1004000058E72DE9FE4F81EA030404F0004421F08F
:10041000004100944FF0000B23F0004350EA010428
:100420005ED052EA03045BD0C3F30A54C1F30A5509
:100430002C44A4F2F3340194A0FB0254C1F3130141
:1004400041F48011C3F3130343F4801301FB02440E
:1004500000FB034E840A970A44EA815447EA835713
:10046000A4FB076802958D0A05FB07854FEA932CCC
:1004700004FB0C542705029D4FEA065847EA16373D
:10048000B5EB08056EEB070C870E920E47EA811755
:1004900042EA8312A7FB0201B6EB0B0164EB0004F6
:1004A0002B0D43EA0C335E1844EB1C50DA465146E0
:1004B000E7FB0201C5F313044FEA0B3343EA14537D
:1004C0004FEA0432019C43EA0603A4F10C040294AF
:1004D000009CCDE900B400F098F903B0BDE8F08FBE
:1004E00000200146F9E72DE9F04D81EA030404F00C
:1004F000004B21F0004514464FF0000A23F0004164
:1005000050EA050220D054EA01021DD0C5F30A5773
:100510000246C5F31303C1F31300C1F30A5640F4B6
:10052000801543F48013A7EB0608101BD64608F28B
:10053000FD3873EB050002D308F1010801E09218C1
:100540005B41B8F1000F03DA00200146BDE8F08DF1
:1005500000204FF48011064684460EE0171B73EB13
:10056000050705D3121B63EB050306434CEA010C98
:1005700049084FEA300092185B4150EA0107EDD17B
:1005800052EA030012D082EA040083EA050108431C
:1005900005D0101BAB4106D20122002306E0002249
:1005A0004FF0004302E06FF0010253101AEB060017
:1005B0004CEB085110EB0A0041EB0B01BDE8F04D8C
:1005C00000F014B90EB5C10F80EAE0700844CA0704
:1005D000002140F233438DE80E000A460B4600F03E
:1005E00014F903B000BD0EB540F233410291002171
:1005F000CDE900110A460B4600F007F903B000BD33
:1006000000F0004220F00040C10DC0F3160040F49D
:1006100000007F2901DA00207047962903DCC1F130
:100620009601C84001E096398840002AF4D0404243
:100630007047C1F30A5210B5C1F3130140F2FF3302
:1006400041F480119A4201DA002010BD40F2334398
:100650009A42A2F2334203DC524200F06EF810BD1F
:10066000904010BD00F0004230F000400AD0C10DB3
:1006700001F56071C0F3160042EA0151C20840075B
:1006800011437047002001467047000030B5041E3A
:1006900071F1000404DB4FF00044404264EB0101BF
:1006A000141E73F1000405DB1C464FF00043524258
:1006B00063EB04038B4208BF824230BD01F000436C
:1006C00030B421F0004150EA010206D00A0DA2F533
:1006D0006072C1F31301002A02DC30BC00207047B5
:1006E000440F44EAC104C100E01830BC00EBC25022
:1006F00000F045B8002801DBC0F10040002901DB13
:10070000C1F1004181427047002801DBC0F1004087
:10071000002901DBC1F1004188427047202A04DB37
:10072000203A00FA02F1002070479140C2F1200304
:1007300020FA03F3194390407047202A04DB203A43
:1007400021FA02F00021704721FA02F3D040C2F1F1
:1007500020029140084319467047202A06DBCB1738
:10076000203A41FA02F043EAE07306E041FA02F36C
:10077000D040C2F120029140084319467047002939
:10078000A8BF7047401C490008BF20F00100704717
:1007900010B4B0FA80FC00FA0CF050EA010404BF77
:1007A00010BC704749B1CCF1200421FA04F411FACD
:1007B0000CF118BF012121430843A3EB0C01CB1D11
:1007C0004FEA00614FEA102042BF002010BC704782
:1007D00000EBC35010440029A4BF10BC7047401C5C
:1007E000490008BF20F0010010BC704710B5141E6E
:1007F00073F1000408DA401C41F1000192185B41DA
:100800001A4301D120F0010010BD2DE9F04D9246B0
:100810009B4611B1B1FA81F202E0B0FA80F22032C7
:100820009046FFF77BFF04460F4640EA0A0041EA84
:100830000B0153465A46084313D0114653EA0100B0
:1008400019D0C8F140025046FFF777FF05460E4623
:10085000504659464246FFF761FF084305D0012044
:1008600004E020463946BDE8F08D0020054346EA05
:10087000E0762C4337430A986305E40AA0EB0800AE
:100880000022FD0A44EA47540A3002D500200146FE
:10089000E9E7010510196941DDE9084500196941D9
:1008A000BDE8F04DA2E70000064C074D06E0E06809
:1008B00040F0010394E8070098471034AC42F6D3A7
:1008C000FFF718FCB8200008D820000870B590B0D9
:1008D00004466A4632210DA800F094FE0DA9204678
:1008E00000F00DF80DA800F049FE401E86B231461A
:1008F0000DA800F071FE0546284610B070BD70B519
:1009000004460D462188284600F0FDFEA1782846C1
:1009100000F0D9FEE178284600F0D5FEE278211DEE
:10092000284600F0D8FE284600F042FE0646314632
:10093000284600F0C8FE70BD2DE9F74F90B0144670
:1009400001200F9011AB01220A21109800F002F94A
:1009500001A9109800F062F88346BBF1000F1DD189
:100960009DF808909DF84400814503D0072013B0FE
:10097000BDE8F08F9DF809109DF80A0041EA0020BB
:100980000FFA80FA5046FFF71DFE07460022044B7F
:10099000FFF7A9FD0546FFF791FE20605846E6E700
:1009A000000024402DE9F74F90B0144601200F902D
:1009B00011AB01221021109800F0CCF801A9109879
:1009C00000F02CF88346BBF1000F23D19DF808906E
:1009D0009DF84400814503D0072013B0BDE8F08F97
:1009E0009DF809109DF80A0041EA00219DF80B00CE
:1009F00041EA00419DF80C0041EA006A5046FFF7C9
:100A0000E1FD07460022044BFFF76DFD0546FFF7A9
:100A100055FE20605846E0E7000024402DE9F041F3
:100A200005460C46002084F8370000270026642085
:100A300000F010FF87E0A86800F0A0FD00B982E098
:100A400094F8370000F00800C8B1A86800F035FE3F
:100A500004F8360F607840F010006070363C204695
:100A6000FFF734FF94F83610884204D000F002FFFC
:100A70000620BDE8F08100F0FDFE0020F9E794F8C3
:100A8000370000F0040080B1A86800F016FE211DB8
:100A9000C855781CC7B2E078B84253D194F83700F3
:100AA00040F0080084F837004CE094F8370000F07C
:100AB000020088B1A86800F000FEE070E0782D2800
:100AC00003DD00F0D7FE0520D3E794F8370040F0AF
:100AD000040084F8370035E094F8370000F0010096
:100AE00088B1A86800F0E9FDA070A078112803DDA6
:100AF00000F0C0FE0420BCE794F8370040F002008C
:100B000084F837001EE03EB9A86800F0D6FD06461E
:100B1000052E17D0002615E0052E12D1A86800F08A
:100B2000CCFD46EA002641F60540864201D000266B
:100B300008E0268094F8370040F0010084F8370080
:100B400000E0002600BF00F0A3FE00283FF473AFD2
:100B500002208EE7F0B58FB005460E4614461F46BC
:100B600044F61240ADF804008DF806608DF8074099
:100B7000002003E03A5C02A90A54401CA042F9DBC1
:100B800001A86968FFF7BBFE284601F073F90FB0B2
:100B9000F0BD00002DE9F04F87B006460F46144621
:100BA0001D46DDE910894FF0070B05AA072102A8B1
:100BB00000F028FD1D492046FFF7A6FD01D21B4C81
:100BC00005E01B492046FFF795FD00D2184C394639
:100BD00002A800F078FD21461648FFF7FBFA0190C5
:100BE000FFF70EFD0FFA80FA514602A800F082FDD1
:100BF000294602A800F087FD414602A800F083FDC7
:100C00000DF11503072208213046FFF7A3FFB9F1C4
:100C1000000F08D0002322463946304600F00CF879
:100C200007B0BDE8F08F0020FAE700000000344371
:100C3000000034C3000020412DE9F84F81468A4668
:100C400015461E46002727E02EB16A465146484603
:100C5000FFF7A8FE04E06A4651464846FFF76CFEDF
:100C600028460099FFF7B0FA804628F0004400BFFC
:100C70004FF07E512046FFF73DFD02D80020BDE831
:100C8000F88F781C87B242F21070874201DB012096
:100C9000F5E7642000F006FED6E72DE9F0410246B4
:100CA00000250026002000230024002791F803C01F
:100CB0000CF00F0591F803C00CF0100CBCF1000F04
:100CC00003D091F802C04CEA050591F800C0BCF1D0
:100CD000000F31D0146800202BE04FF0010C0CFA0B
:100CE00000F3B1F800C00CEA03069E4220D1830055
:100CF0004FF00F0C0CFA03F7BC4305FA03FC4CEA67
:100D0000040491F803C0BCF1280F06D14FF0010C88
:100D10000CFA00FCC2F814C00AE091F803C0BCF160
:100D2000480F05D14FF0010C0CFA00FCC2F810C0BE
:100D3000401C0828D1D31460B1F800C0BCF1FF0FEB
:100D400034DD546800202EE000F1080C4FF001085B
:100D500008FA0CF3B1F800C00CEA03069E4221D158
:100D600083004FF00F0C0CFA03F7BC4305FA03FCA9
:100D70004CEA040491F803C0BCF1280F05D100F13E
:100D8000080C08FA0CF8C2F8148091F803C0BCF102
:100D9000480F07D100F1080C4FF0010808FA0CF8D1
:100DA000C2F81080401C0828CED35460BDE8F08102
:100DB0002DE9FC5F2A4800682A4908602A48008813
:100DC000FFF711FC80460022284BFFF78CFB0646FC
:100DD0000022274BFFF70FFB0446FFF76FFC20496B
:100DE000086008460068FFF73DFC21F0004104461A
:100DF000204A214BFFF74AFC02D80020184908601E
:100E00001748016817480068FFF7DEF98346FFF7C7
:100E100029FC06460022194BFFF7F3FACDE9000141
:100E20000F480068FFF71EFC06460022144BFFF730
:100E3000E8FA0446DDE90023FFF73CFA8046FFF7B5
:100E40003DFC824651460F480068FFF76BF90446A7
:100E50000D4A21460D48006800F062F9BDE8FC9F8C
:100E6000280000202C0000201C00002000005E4014
:100E70000000E03F7B14AE47E17A843F000022404F
:100E8000000034406C00002000007A440000002084
:100E90002DE9FC5F2B4800682B4908602B4800882F
:100EA000FFF7A1FB80460022294BFFF71CFB0646FB
:100EB0000022284BFFF79FFA0446FFF7FFFB21496A
:100EC000086008460068FFF7CDFB21F000410446AA
:100ED000214A224BFFF7DAFB02D8002019490860AB
:100EE0001848016818480068FFF76EF98346FFF755
:100EF000B9FB064600221A4BFFF783FACDE9000141
:100F000010480068FFF7AEFB06460022154BFFF7BE
:100F100078FA0446DDE90023FFF7CCF98046FFF7B5
:100F2000CDFB8246514610480068FFF7FBF80446A7
:100F30000E48214602680E48006800F043F9BDE8FB
:100F4000FC9F000020000020240000201A00002048
:100F5000000064400000E03F7B14AE47E17A843F2C
:100F600000001440000034406800002014000020FD
:100F7000000000202DE9F0472D482E490860084662
:100F80000068FFF76FFB804600222B4BFFF739FA12
:100F900006462A4A2A4BFFF731FA0446FFF78EFB32
:100FA0002849086028482949086008460068FFF772
:100FB00059FB8046214A224BFFF723FA06460022BE
:100FC0001D4BFFF71BFA0446FFF778FB204908602A
:100FD0004FF07E501F49086008460068FFF742FB4B
:100FE000064600221C4BFFF70CFA044600221A4B5F
:100FF000FFF704FA8046FFF761FB184908604FF0DD
:101000007E501749086008460068FFF72BFB06462C
:101010000022114BFFF7F5F9044600220E4BFFF7B3
:10102000EDF98046FFF74AFB0E490860BDE8F087FE
:101030003FE983BF38000020008056409A99999973
:10104000999956C03C000020E26878BF400000201B
:10105000440000204800002000004E404C000020CA
:10106000500000205400002010B50446FFF782FF16
:10107000204600F017F8204600F0F6F810BD0000FA
:1010800070B50446054801682046FFF7A3F80546F9
:10109000034801682846FFF745F870BD4800002066
:1010A0004C00002070B505460A4A0021284600F091
:1010B00089F80446074A0021284600F031F8064620
:1010C000B44201DD204600E030460446204600F0F0
:1010D000E9FB70BD0000C84270B5044605480168D0
:1010E0002046FFF777F80546034801682846FFF7D2
:1010F00019F870BD500000205400002070B504465F
:10110000054801682046FFF765F805460348016871
:101110002846FFF707F870BD40000020440000207B
:101120002DE9FC5F81460C461646484600F0A6F8BD
:101130001E492046FFF7DEFA01D21C4800E0204697
:1011400004461B492046FFF7DFFA01D2184800E0A9
:1011500020460446174804602046FFF791FF1649D1
:1011600008601448016815480068FFF72DF8144915
:101170000190FFF72FF883463146FFF75DF882466E
:10118000FFF770FA21F000410746FFF752FA85B2E7
:10119000002000902B460190074801210268484634
:1011A000FFF7F8FC2846BDE8FC9F00000000B4C231
:1011B0000000204274000020640000206C00002029
:1011C00000007A442DE9FC5F81460C4616464846ED
:1011D00000F066F81E492046FFF78CFA01D21C4841
:1011E00000E0204604461B492046FFF78DFA01D255
:1011F000184800E02046044617480460204600F0E6
:1012000061F8164908601448016815480068FEF73F
:10121000DBFF14490190FEF7DDFF83463146FFF7FF
:101220000BF88246FFF71EFA21F000410746FFF750
:1012300000FA85B2002000902B460190074800215B
:1012400002684846FFF7A6FC2846BDE8FC9F000060
:10125000000002C300000243700000206000002074
:101260006800002000007A4410B50446204600F0D3
:1012700017F8204600F002F810BD000010B5044633
:10128000054A01212046FFF757FB03480068FFF796
:1012900023FF0249086010BD5C0000206C000020A4
:1012A00010B50446054A00212046FFF745FB0348D8
:1012B0000068FFF723FF0249086010BD58000020B6
:1012C0006800002070B50446054801682046FEF716
:1012D00081FF0546034801682846FEF723FF70BDDD
:1012E000380000203C00002070B5002100230F22B0
:1012F000C47804B3154C246804F4E064C4F5E064D5
:10130000210AC1F10403CA40447804FA03F1847845
:101310001440214309010E4C0678A155047804F0CD
:101320001F050124AC4005786D11AD0005F1E025E5
:10133000C5F8004109E0047804F01F050124AC4021
:10134000044D0678761145F8264070BD0CED00E09E
:1013500000E400E080E100E002490143024A11603C
:10136000704700000000FA050CED00E010B53148B0
:101370000088401C2F49088008460088012806D1B3
:101380002D4A00212D480068FFF71CFF4DE0294839
:101390000088322806D1284A002128480068FFF733
:1013A000BFFE42E023480088C82806D1244A2549C8
:1013B00022480068FFF706FF37E01E480088B0F5B6
:1013C000C87F06D11E4A20491C480068FFF7FAFE74
:1013D0002BE018480088B0F5167F06D1164A1B4945
:1013E00016480068FFF79CFE1FE012480088B0F521
:1013F000487F06D1124A134910480068FFF7E2FE01
:1014000013E00C480088B0F57A7F06D10C4A0E49EB
:101410000A480068FFF7D6FE07E006480088B0F5E6
:10142000966F02DD0020034908800A2000F03AFA96
:1014300010BD0000320000200000484200000020E3
:101440000000C8420000B4420000B4C20000F041F5
:1014500029B1064AD2690243044BDA6104E0034A27
:10146000D2698243014BDA617047000000100240EC
:1014700029B1064A92690243044B9A6104E0034A87
:1014800092698243014B9A6170470000001002404C
:1014900030B500210022002400232D4D6D6805F099
:1014A0000C0121B1042905D0082923D105E0294DDB
:1014B000056022E0274D05601FE0254D6D6805F4AD
:1014C0007012234D6D6805F48034022505EB9242BD
:1014D0001CB9214D554305600BE01D4D6D6805F4A9
:1014E00000351DB11C4D5543056002E0194D5543B3
:1014F000056002E0174D056000BF00BF144D6D6828
:1015000005F0F0010909154D6B5C0568DD4045608B
:101510000F4D6D6805F4E061090A104D6B5C45687C
:10152000DD4085600A4D6D6805F46051C90A0B4DB8
:101530006B5C4568DD40C560054D6D6805F4404154
:10154000890B074D6B5CC568B5FBF3F5056130BDD4
:101550000010024000127A0000093D0080000020C7
:101560009000002030B50446204600F01CF80546E7
:10157000204600F003F8281A80B230BD00B50246BC
:101580009088D188884209DD104600F00CF89188D7
:10159000D388C91A491E401A80B200BDD0889188EC
:1015A000401A80B2F9E701460889401E80B27047B0
:1015B000F0B506463046FFF7E1FF07460025002458
:1015C00006E0A1B2304600F007F82844C5B2641C1A
:1015D000BC42F6DBE8B2F0BD70B504460D462046CD
:1015E000FFF7CCFFA84201DC002070BDA088284492
:1015F000401C218990FBF1F201FB120086B22068A9
:10160000805DF2E730B50B46026000218180C18029
:10161000591C0181002104E0002405686C544C1C15
:10162000A1B204898C42F7DC30BD10B504462046D7
:10163000FFF798FF02462046FFF7B5FF824201D12F
:10164000012010BD0020FCE710B504462046FFF73E
:1016500089FF08B9012010BD0020FCE730B5044621
:101660002046FFF7E2FF08B1002030BDA088401CF3
:10167000218990FBF1F201FB1200A080A188206873
:10168000455C0020A288216888542846EDE730B5E3
:1016900004460D462046FFF7D7FF10B12046FFF75E
:1016A000DDFFE088401C218990FBF1F201FB120074
:1016B000E080E1882068455430BD10B504462046DE
:1016C000FFF7CCFF10BD30B504460D462946204635
:1016D000FFF7DDFF30BDF0B507460D461646002486
:1016E00005E0295D3846FFF7D2FF601C84B2B442A2
:1016F000F7DBF0BD33B5044601AD02222946204692
:10170000FFF7E9FF3CBD33B5044601AD022229468F
:101710002046FFF7E0FF3CBD10B500F001F810BD1A
:101720000CB50020019000903348006840F48030F0
:101730003149086000BF3048006800F40030009074
:101740000198401C0190009818B90198B0F5A06F5D
:10175000F1D12948006800F4003010B10120009058
:1017600001E0002000900098012843D12348006840
:1017700040F01000214908600846006820F003008E
:1017800008600846006840F0020008601A48406897
:10179000194948600846406848600846406840F477
:1017A000806048600846406820F47C104860084625
:1017B000406840F4E81048600846006840F08070D7
:1017C000086000BF0C48006800F000700028F9D0E5
:1017D0000948406820F0030007494860084640680F
:1017E00040F00200486000BF0348406800F00C0071
:1017F0000828F9D10CBD0000001002400020024072
:1018000030B50146B1F1807F01D3012030BD21F018
:101810007F40401E4FF0E022506150170F220028F9
:1018200007DA13071D0E094B00F00F04241F1D5586
:1018300003E013071C0E064B1C5400BF00204FF0A2
:10184000E0229061072010610020DFE718ED00E042
:1018500000E400E001B50649009808604FF0E02080
:10186000006940F001004FF0E021086108BD000070
:10187000340000200020054908604FF0E020006996
:1018800020F001004FF0E021086170473400002093
:101890000348006808B9012070470020FCE70000F9
:1018A0003400002001B503490098086000F02CF8CE
:1018B00008BD0000340000200648006828B1054833
:1018C0000068401E0349086002E0002001490860EA
:1018D000704700003400002010B50A4800684FF43B
:1018E0007A71B0FBF1F42046FFF78AFF08B100BF20
:1018F000FEE74FF0E020006920F001004FF0E0210A
:10190000086110BD940000204FF0E020006940F015
:1019100001004FF0E021086100BF06480068002880
:10192000FBD14FF0E020006920F001004FF0E021F2
:10193000086170473400002010B51348006840F07B
:1019400001001149086008464068104908400E49E6
:101950004860084600680E4908400B490860084680
:10196000006820F4802008600846406820F4FE00EB
:1019700048604FF41F008860FFF7CEFE4FF0006014
:101980000449086010BD0000001002400000FFF88C
:10199000FFFFF6FE08ED00E010B540F225510748C4
:1019A00000F055F840B1054800F00CF9C4B2044904
:1019B00088682146FFF76BFE10BD0000003801402B
:1019C000AC04002010B540F22551074800F03FF864
:1019D00048B10649086800F0F5F8C4B203498868C0
:1019E0002146FFF754FE10BD00440040BC08002013
:1019F00010B540F22551074800F029F848B10649D2
:101A0000086800F0DFF8C4B2034988682146FFF790
:101A10003EFE10BD00480040CC0C002021B1828960
:101A200042F40052828104E082894DF6FF731A402D
:101A30008281704702460020B1F5007F00D100BFCF
:101A400013880B400BB1012000E00020704770B5F7
:101A50000246002400230025002040F66A16B14209
:101A600000D100BFC1F3421501F01F03012606FAA1
:101A700003F3012D02D19689334006E0022D02D1F5
:101A8000168A334001E0968A33400C12012606FA8A
:101A900004F41688344013B10CB1012000E000209A
:101AA00070BDF0B50346002400260025002040F656
:101AB0006A17B94200D100BF1846C1F3421401F0C1
:101AC0001F06012707FA06F5012C01D10C3004E0AE
:101AD000022C01D1103000E014301AB107682F43F6
:101AE000076002E00768AF430760F0BD2DE9F047EB
:101AF00086B005460E460024A24600BFA146002738
:101B0000B08900B100BF2F462C8A4CF6FF7004400C
:101B1000F08804432C82AC894EF6F3100440B08860
:101B200031890843718908430443AC81AC8A4FF67C
:101B3000FF400440B0890443AC8201A8FFF7A8FC31
:101B40001F48874202D1DDF810A001E0DDF80CA0AB
:101B5000A88900F4004040B10AEBCA0000EB0A106B
:101B600031684900B0FBF1F807E00AEBCA0000EB6E
:101B70000A1031688900B0FBF1F86420B8FBF0F07E
:101B800004012009642101FB1089A88900F40040A8
:101B900040B1322000EBC900B0FBF1F000F00700CB
:101BA000044308E0322000EB09106421B0FBF1F09F
:101BB00000F00F0004432C8106B0BDE8F087000060
:101BC0000038014001468888C0F308007047C1F31F
:101BD000080282807047000000B587B091489249A2
:101BE0000860924A4FF4FA719148FFF70BFD914A51
:101BF0004FF4FA719048FFF705FD8F488A498860D5
:101C00008B48486001218803FFF732FC0121042042
:101C1000FFF72EFC4FF40070ADF8180003208DF88C
:101C20001A0018208DF81B0006A98448FFF735F824
:101C30004FF48060ADF8180004208DF81B0006A951
:101C40007E48FFF72AF84FF4E13002900020ADF80B
:101C50000C00ADF80E00ADF81000ADF814000C202B
:101C6000ADF812004FF4A060FFF776FB25208DF849
:101C7000040001208DF805008DF806008DF807009E
:101C800001A8FFF731FB02A96648FFF72FFF0122E9
:101C900040F225516348FFF704FF01216148FFF737
:101CA000BDFE674867490860674A4FF4FA716748A4
:101CB000FFF7A8FC664A4FF4FA716648FFF7A2FCEA
:101CC0006448604988606148486001214804FFF722
:101CD000BFFB01210420FFF7CBFB0420ADF8180067
:101CE00003208DF81A0018208DF81B0006A9534810
:101CF000FEF7D3FF0820ADF8180004208DF81B0074
:101D000006A94E48FEF7C9FF26208DF804000320DF
:101D10008DF805008DF8060001208DF8070001A858
:101D2000FFF7E2FA4FF4E13002900020ADF80C002A
:101D3000ADF80E00ADF81000ADF814000C20ADF8B1
:101D4000120002A93E48FFF7D1FE012240F22551C0
:101D50003B48FFF7A6FE01213948FFF75FFE3E48EA
:101D60003E4908603E4A4FF4FA713E48FFF74AFC8C
:101D70003D4A4FF4FA713D48FFF744FC3B48374970
:101D800088603848486001218804FFF761FB012121
:101D90000820FFF76DFB4FF48060ADF818000320BA
:101DA0008DF81A0018208DF81B0006A93048FEF7A0
:101DB00074FF4FF40060ADF8180004208DF81B008C
:101DC00006A92B48FEF769FF27208DF804000320A1
:101DD0008DF805008DF8060001208DF8070001A898
:101DE000FFF782FA4FF4E13002900020ADF80C00CA
:101DF000ADF80E00ADF81000ADF814000C20ADF8F1
:101E0000120002A91448FFF771FE012240F2255189
:101E10001148FFF746FE01210F48FFF7FFFD07B00D
:101E200000BD000000380140AC040020A8000020E4
:101E3000940400209D020020A0040020000801401E
:101E400000440040BC080020B8040020A408002082
:101E5000AD060020B008002000480040CC0C002057
:101E6000C8080020B40C0020BD0A0020C00C0020CF
:101E7000000C014070B5044607E06068FFF7EEFB18
:101E800005462946206800F006F86068FFF776FBF3
:101E90000028F2D170BD70B504460D462946204693
:101EA000FFF795FE00BF80212046FFF7C3FD002805
:101EB000F9D070BD02E008C8121F08C1002AFAD18B
:101EC00070477047002001E001C1121F002AFBD1BA
:101ED00070470000FFF700FDFFF77EFE2248006814
:101EE000FFF7C2F83EE0214909688868FFF746FB22
:101EF000072803DB1D48006800F042F81A48006814
:101F0000FFF7B2F91A480078F1280AD0184800788B
:101F10001849087008460078A12802D00020164908
:101F2000088014480078A02804D0A1280AD0A2284C
:101F300013D10AE01148007818B10B480068FFF788
:101F4000B1F80BE0FFF712FA08E00C48007818B17E
:101F5000FEF79EFFFEF72CFF00E000BF00BF012050
:101F6000FFF7A0FCBFE700000000002008000020F1
:101F7000190000203000002032000020180000204E
:101F80002DE9FC5F81467DE0D9F80800FFF766FB8C
:101F900004464148007810B9FF2C00D072E03E485A
:101FA000007801280BD1F12C09D0A02C07D0A12C4E
:101FB00005D0A22C03D000203749087062E03748D2
:101FC00035490978445434480078401C3249087037
:101FD00008460078072854DB3048407830490870BC
:101FE0002E4880782F4908702C49C9782B4A1279DD
:101FF00041EA0220FEF7F7FA07464FF066322A4B15
:10200000FEF7FFF905460E4628480088FEF7EBFA72
:1020100007464FF03332264BFEF7F3F982462A4645
:102020003346FEF747F9CDE90001FEF702FB1F49F1
:1020300008801A494979194A927941EA0220FEF743
:10204000D2FA05464FF06632174BFEF7DAF907462B
:10205000884618480088FEF7C6FA05464FF0333226
:10206000134BFEF7CEF982463A464346FEF722F975
:10207000CDE90001FEF7DDFA0E490880002006498F
:10208000087000BFD9F80800FFF778FA00287FF43D
:102090007BAFBDE8FC9F0000130000200C00002077
:1020A00019000020180000206666E63F1A00002094
:1020B0003333D33F1C000020D8200008000000204C
:1020C000A8000000B41E000880210008A80000201D
:1020D00030100000C41E0008AC040020BC08002022
:1020E000CC0C002000000000000000000000C843ED
:1020F00000F10000000000000000000000000000EF
:1021000000000000000000000000000000000000CF
:1021100000000000000000000000000000000000BF
:1021200000000000000000000000000000000000AF
:10213000000000000000000000000000000000009F
:10214000000000000000000000000000000000008F
:102150000000000000000000000000000102030475
:1021600001020304060708090204060800A24A0443
:102170000000000000000000010203040607080937
:0400000508000101ED
:00000001FF
