:020000040800F2
:10000000580C002001010008090100080B0100083C
:100010000D0100080F010008110100080000000098
:1000200000000000000000000000000013010008B4
:10003000150100080000000017010008F90700087A
:100040001B0100081B0100081B0100081B01000820
:100050001B0100081B0100081B0100081B01000810
:100060001B0100081B0100081B0100081B01000800
:100070001B0100081B0100081B0100081B010008F0
:100080001B0100081B0100081B0100081B010008E0
:100090001B0100081B0100081B0100081B010008D0
:1000A0001B0100081B0100081B0100081B010008C0
:1000B0001B0100081B0100081B0100081B010008B0
:1000C0001B0100081B0100081B0100081B010008A0
:1000D0001B010008D9080008050900081B010008D9
:1000E0001B0100081B0100081B010008DFF80CD0F1
:1000F00000F018F8004800470D0D0008580C0020CB
:100100000648804706480047FEE7FEE7FEE7FEE7B1
:10011000FEE7FEE7FEE7FEE7FEE7FEE779080008F8
:10012000ED000008064C074D06E0E06840F00103D2
:1001300094E8070098471034AC42F6D3FFF7DAFF93
:10014000940D0008B40D000870B504460D462188D2
:10015000284600F09FFAA178284600F084FAE1785A
:10016000284600F080FAE278211D284600F083FA44
:10017000284600F0F3F906463146284600F073FAA7
:1001800070BDF0B58FB005460E4614461F4644F6C6
:100190001240ADF804008DF806608DF8074000208D
:1001A00003E03A5C02A90A54401CA042F9DB01A812
:1001B0006968FFF7C9FF284600F078FD0FB0F0BD71
:1001C0002DE9F843074688461446994601250CB1A7
:1001D00045F0800500264B462A46414638460096A3
:1001E00000F002F8BDE8F8832DE9F04385B006463B
:1001F0000F4614461D46DDF830804FF0060903AA6D
:100200000621684600F0D4F93946684600F02BFA1A
:100210002146684600F027FA2946684600F03AFA77
:100220004146684600F036FA0DF10D03062207211B
:100230003046FFF7A6FF002005B0BDE8F0832DE9AA
:10024000F84304460D4600260027B0463B4632469A
:1002500029462046CDF80080FFF7C6FFBDE8F883A9
:100260002DE9F0410246002500260020002300244D
:10027000002791F803C00CF00F0591F803C00CF0B3
:10028000100CBCF1000F03D091F802C04CEA050538
:1002900091F800C0BCF1000F31D0146800202BE0B1
:1002A0004FF0010C0CFA00F3B1F800C00CEA0306A1
:1002B0009E4220D183004FF00F0C0CFA03F7BC4391
:1002C00005FA03FC4CEA040491F803C0BCF1280FC2
:1002D00006D14FF0010C0CFA00FCC2F814C00AE081
:1002E00091F803C0BCF1480F05D14FF0010C0CFA96
:1002F00000FCC2F810C0401C0828D1D31460B1F82B
:1003000000C0BCF1FF0F34DD546800202EE000F186
:10031000080C4FF0010808FA0CF3B1F800C00CEA21
:1003200003069E4221D183004FF00F0C0CFA03F715
:10033000BC4305FA03FC4CEA040491F803C0BCF189
:10034000280F05D100F1080C08FA0CF8C2F8148047
:1003500091F803C0BCF1480F07D100F1080C4FF031
:10036000010808FA0CF8C2F81080401C0828CED307
:100370005460BDE8F081000070B5002100230F2219
:10038000C47804B3154C246804F4E064C4F5E06454
:10039000210AC1F10403CA40447804FA03F18478C5
:1003A0001440214309010E4C0678A155047804F04D
:1003B0001F050124AC4005786D11AD0005F1E02565
:1003C000C5F8004109E0047804F01F050124AC40A1
:1003D000044D0678761145F8264070BD0CED00E01E
:1003E00000E400E080E100E002490143024A1160BC
:1003F000704700000000FA050CED00E029B1064A44
:10040000D2690243044BDA6104E0034AD2698243B1
:10041000014BDA61704700000010024029B1064A22
:1004200092690243044B9A6104E0034A9269824351
:10043000014B9A61704700000010024030B5002166
:100440000022002400232D4D6D6805F00C0121B120
:10045000042905D0082923D105E0294D056022E0B3
:10046000274D05601FE0254D6D6805F47012234D82
:100470006D6805F48034022505EB92421CB9214DCC
:10048000554305600BE01D4D6D6805F400351DB149
:100490001C4D5543056002E0194D5543056002E0CF
:1004A000174D056000BF00BF144D6D6805F0F001E9
:1004B0000909154D6B5C0568DD4045600F4D6D68A1
:1004C00005F4E061090A104D6B5C4568DD4085600C
:1004D0000A4D6D6805F46051C90A0B4D6B5C4568A7
:1004E000DD40C560054D6D6805F44041890B074D41
:1004F0006B5CC568B5FBF3F5056130BD00100240CB
:1005000000127A0000093D001000002020000020A9
:1005100030B50446204600F01CF80546204600F0A1
:1005200003F8281A80B230BD00B502469088D18801
:10053000884209DD104600F00CF89188D388C91A6A
:10054000491E401A80B200BDD0889188401A80B2FE
:10055000F9E701460889401E80B27047F0B50646AB
:100560003046FFF7E1FF07460025002406E0A1B270
:10057000304600F007F82844C5B2641CBC42F6DBE4
:10058000E8B2F0BD70B504460D462046FFF7CCFF3B
:10059000A84201DC002070BDA0882844401C2189AD
:1005A00090FBF1F201FB120086B22068805DF2E759
:1005B00030B50B46026000218180C180591C018149
:1005C000002104E0002405686C544C1CA1B204898D
:1005D0008C42F7DC30BD10B504462046FFF798FF8B
:1005E00002462046FFF7B5FF824201D1012010BD2F
:1005F0000020FCE710B504462046FFF789FF08B944
:10060000012010BD0020FCE730B504462046FFF76E
:10061000E2FF08B1002030BDA088401C218990FB7A
:10062000F1F201FB1200A080A1882068455C002047
:10063000A288216888542846EDE730B504460D4667
:100640002046FFF7D7FF10B12046FFF7DDFFE08817
:10065000401C218990FBF1F201FB1200E080E1884F
:100660002068455430BD30B504460D462946204625
:10067000FFF7E3FF30BDF0B507460D4616460024F0
:1006800005E0295D3846FFF7D8FF601C84B2B4420C
:10069000F7DBF0BD33B5044601AD02222946204602
:1006A000FFF7E9FF3CBD10B500F002F810BD0000F7
:1006B0000CB50020019000903348006840F4803071
:1006C0003149086000BF3048006800F400300090F5
:1006D0000198401C0190009818B90198B0F5A06FDE
:1006E000F1D12948006800F4003010B101200090D9
:1006F00001E0002000900098012843D123480068C1
:1007000040F01000214908600846006820F003000E
:1007100008600846006840F0020008601A48406817
:10072000194948600846406848600846406840F4F7
:10073000806048600846406820F47C1048600846A5
:10074000406840F4E81048600846006840F0807057
:10075000086000BF0C48006800F000700028F9D065
:100760000948406820F0030007494860084640688F
:1007700040F00200486000BF0348406800F00C00F1
:100780000828F9D10CBD00000010024000200240F2
:1007900030B50146B1F1807F01D3012030BD21F099
:1007A0007F40401E4FF0E022506150170F2200287A
:1007B00007DA13071D0E094B00F00F04241F1D5507
:1007C00003E013071C0E064B1C5400BF00204FF023
:1007D000E0229061072010610020DFE718ED00E0C3
:1007E00000E400E001B503490098086000F02CF82F
:1007F00008BD00000C0000200648006828B105482C
:100800000068401E0349086002E0002001490860BA
:10081000704700000C00002010B50A4800684FF433
:100820007A71B0FBF1F42046FFF7B2FF08B100BFC8
:10083000FEE74FF0E020006920F001004FF0E021DA
:10084000086110BD240000204FF0E020006940F056
:1008500001004FF0E021086100BF06480068002851
:10086000FBD14FF0E020006920F001004FF0E021C3
:10087000086170470C00002010B51348006840F074
:1008800001001149086008464068104908400E49B7
:100890004860084600680E4908400B490860084651
:1008A000006820F4802008600846406820F4FE00BC
:1008B00048604FF41F008860FFF7F5FE4FF00060BE
:1008C0000449086010BD0000001002400000FFF85D
:1008D000FFFFF6FE08ED00E010B540F22551074895
:1008E00000F03FF840B1054800F0F6F8C4B2044902
:1008F00088682146FFF7A1FE10BD000000380140C6
:100900003C04002010B540F22551074800F029F8BA
:1009100048B10649086800F0DFF8C4B203498868A6
:100920002146FFF78AFE10BD004400404C0800201D
:1009300021B1828942F40052828104E082894DF61D
:10094000FF731A408281704702460020B1F5007F94
:1009500000D100BF13880B400BB1012000E0002044
:10096000704770B50246002400230025002040F6A1
:100970006A16B14200D100BFC1F3421501F01F0356
:10098000012606FA03F3012D02D19689334006E0D1
:10099000022D02D1168A334001E0968A33400C12B0
:1009A000012606FA04F41688344013B10CB1012074
:1009B00000E0002070BDF0B50346002400260025AD
:1009C000002040F66A17B94200D100BF1846C1F3B3
:1009D000421401F01F06012707FA06F5012C01D188
:1009E0000C3004E0022C01D1103000E014301AB1B8
:1009F00007682F43076002E00768AF430760F0BD58
:100A00002DE9F04786B005460E460024A24600BFF9
:100A1000A1460027B08900B100BF2F462C8A4CF6B2
:100A2000FF700440F08804432C82AC894EF6F3102A
:100A30000440B08831890843718908430443AC817C
:100A4000AC8A4FF6FF400440B0890443AC8201A851
:100A5000FFF7F4FC1F48874202D1DDF810A001E047
:100A6000DDF80CA0A88900F4004040B10AEBCA00F0
:100A700000EB0A1031684900B0FBF1F807E00AEB1F
:100A8000CA0000EB0A1031688900B0FBF1F864205D
:100A9000B8FBF0F004012009642101FB1089A8894A
:100AA00000F4004040B1322000EBC900B0FBF1F08F
:100AB00000F00700044308E0322000EB0910642135
:100AC000B0FBF1F000F00F0004432C8106B0BDE84C
:100AD000F08700000038014001468888C0F3080014
:100AE0007047C1F3080282807047000000B587B0EC
:100AF000614862490860624A4FF4FA716148FFF741
:100B000057FD614A4FF4FA716048FFF751FD5F48A5
:100B10005A4988605B48486001218803FFF77EFCE2
:100B200001210420FFF77AFC4FF40070ADF81800A3
:100B300003208DF81A0018208DF81B0006A95448D0
:100B4000FFF78EFB4FF48060ADF8180004208DF89D
:100B50001B0006A94E48FFF783FB4FF4E1300290DB
:100B60000020ADF80C00ADF80E00ADF81000ADF8A7
:100B700014000C20ADF812004FF4A060FFF734FC15
:100B800025208DF8040001208DF805008DF8060061
:100B90008DF8070001A8FFF7EFFB02A93648FFF721
:100BA0002FFF012240F225513348FFF704FF0121B6
:100BB0003148FFF7BDFE374837490860374A4FF4E0
:100BC000FA713748FFF7F4FC364A4FF4FA713648A9
:100BD000FFF7EEFC34483049886031484860012115
:100BE0004804FFF70BFC01210420FFF717FC042049
:100BF000ADF8180003208DF81A0018208DF81B009E
:100C000006A92348FFF72CFB0820ADF818000420A4
:100C10008DF81B0006A91E48FFF722FB26208DF841
:100C2000040003208DF805008DF8060001208DF8E2
:100C3000070001A8FFF7A0FB4FF4E130029000206D
:100C4000ADF80C00ADF80E00ADF81000ADF81400D2
:100C50000C20ADF8120002A90E48FFF7D1FE0122C8
:100C600040F225510B48FFF7A6FE01210948FFF786
:100C70005FFE07B000BD0000003801403C040020CA
:100C800038000020240400202D0200203004002021
:100C900000080140004400404C08002048040020A7
:100CA000340800203D0600204008002070B50446AE
:100CB00007E06068FFF7A8FC05462946206800F0B9
:100CC00006F86068FFF730FC0028F2D170BD70B5FF
:100CD00004460D4629462046FFF703FF00BF80214A
:100CE0002046FFF731FE0028F9D070BD02E008C8A9
:100CF000121F08C1002AFAD170477047002001E096
:100D000001C1121F002AFBD170470000FFF784FDCC
:100D1000FFF7ECFE35E001201A4908701A480388F5
:100D2000084602781948017819480068FFF748FA20
:100D300040F6B830FFF756FD1448017814480068B3
:100D4000FFF77DFA4FF47A70FFF74CFD00200D4954
:100D500008700D480388084602780C4801780C4852
:100D60000068FFF72DFA40F6B830FFF73BFD074863
:100D7000017807480068FFF762FA4FF47A70FFF7CE
:100D800031FDC8E708000020060000200500002013
:100D900000000020B40D0008000000203800000012
:100DA000EC0C0008EC0D000838000020200C0000BE
:100DB000FC0C00083C0400200000140000000000AF
:100DC000000000000000000001020304010203040F
:100DD000060708090204060800A24A0400000000F1
:0C0DE000000000000102030406070809DF
:0400000508000101ED
:00000001FF
