:020000040800F2
:10000000E010002001010008090100080B010008B0
:100010000D0100080F010008110100080000000098
:1000200000000000000000000000000013010008B4
:10003000150100080000000017010008451A00081B
:100040001B0100081B0100081B0100081B01000820
:100050001B0100081B0100081B0100081B01000810
:100060001B0100081B010008B90900081B0100085A
:100070001B0100081B0100081B0100081B010008F0
:100080001B0100081B0100081B0100081B010008E0
:100090001B0100081B0100081B010008FD090008E6
:1000A0001B0100081B0100081B0100081B010008C0
:1000B0001B0100081B0100081B0100081B010008B0
:1000C0001B0100081B0100081B0100081B010008A0
:1000D0001B010008251B0008511B00087D1B0008A0
:1000E0001B0100081B0100081B010008DFF80CD0F1
:1000F00000F050FC0048004761290008E010002093
:100100000648804706480047FEE7FEE7FEE7FEE7B1
:10011000FEE7FEE7FEE7FEE7FEE7FEE7C51A00089A
:10012000ED000008F0B480EA0102D40F4200B2EB07
:10013000410F02D20246084611464A0042D0C30D82
:10014000DDB2C1F3C752AD1A202D35DAC1F3160165
:1001500041F4000204B15242C5F1200602FA06F150
:100160002A411044B3EBD05F23D0C4B1012DA0EBE2
:10017000C35009DCF0BC4FF0004202EAC352DBB2CC
:1001800000F5000000F04BBB400000F1807000EB78
:10019000C350A0F1807040EAD170490009E04908DD
:1001A00041EAC071A0EBC35000F50000400800EB2D
:1001B000C350F0BC00F02ABB6142012202EB4101B6
:1001C000001BF6E7F0BC704781F00041AAE780F021
:1001D0000040A7E780EA010210B502F000434000AA
:1001E00022D04A001FD0010E01EB1261C0F356006D
:1001F000C2F3560240F4000042F40002A0FB0220C9
:1002000000047F39140400D0401C50EA124001D48D
:100210004000491EC2B20C0604EBD010401C40083E
:10022000802A02D003E0002010BD20F00100002948
:1002300000DA0020184310BD30B480EA010202F059
:10024000004530F0004221F0004013D090B1C30DC2
:10025000D40DC2F31601C0F31600E41A41F40001F4
:1002600040F400027D34914201D3641C00E0490057
:10027000002C02DA30BC002070474FF4000000234D
:10028000914201D3891A034340084FEA4101F7D153
:1002900051B1914202D14FF0004105E002D24FF03E
:1002A000010101E06FF0010103EBC450284430BCB0
:1002B00000F0ACBA2DE9FE4F804681EA0300C00F82
:1002C0000C46009021F0004123F00045B8EB0200FD
:1002D000A94105D24046214690461C460B4602469F
:1002E00023F00040104347D0270DC7F30A00C3F3A3
:1002F0000A510290401A019040286BDAC3F31300B0
:1003000040F4801B0098924620B10023D2EB030AF0
:1003100063EB0B0B01985946C0F14002504600F0C8
:1003200044FA06460D4650465946019A00F05CFADA
:1003300010EB08006141002487EA115284EAE77358
:100340001A4340D0009A62B3019A012A4FEA075239
:1003500015DC001B61EB02014FF0004202EA07527C
:10036000CDE90042001C41F5801132462B4600F0D9
:1003700093FA03B0BDE8F08F40462146F9E7001B31
:1003800061EB0201001C41F5801300185B4120184D
:10039000A2F5001747EB030140EAD570B6196D418D
:1003A00011E06D084FEA360645EAC0754FEA07527C
:1003B000001B61EB0201001C41F5801149084FEA66
:1003C00030000019514132462B4603B0BDE8F04FD2
:1003D00000F053BA0098012240000023D0EB020243
:1003E00063EBE073009821464FEAE074B8EB00003D
:1003F00061EB0401E9E783F000435BE781F0004132
:1004000058E72DE9FE4F81EA030404F0004421F08F
:10041000004100944FF0000B23F0004350EA010428
:100420005ED052EA03045BD0C3F30A54C1F30A5509
:100430002C44A4F2F3340194A0FB0254C1F3130141
:1004400041F48011C3F3130343F4801301FB02440E
:1004500000FB034E840A970A44EA815447EA835713
:10046000A4FB076802958D0A05FB07854FEA932CCC
:1004700004FB0C542705029D4FEA065847EA16373D
:10048000B5EB08056EEB070C870E920E47EA811755
:1004900042EA8312A7FB0201B6EB0B0164EB0004F6
:1004A0002B0D43EA0C335E1844EB1C50DA465146E0
:1004B000E7FB0201C5F313044FEA0B3343EA14537D
:1004C0004FEA0432019C43EA0603A4F10C040294AF
:1004D000009CCDE900B400F0DFF903B0BDE8F08F77
:1004E00000200146F9E72DE9F04D81EA030404F00C
:1004F000004B21F0004514464FF0000A23F0004164
:1005000050EA050220D054EA01021DD0C5F30A5773
:100510000246C5F31303C1F31300C1F30A5640F4B6
:10052000801543F48013A7EB0608101BD64608F28B
:10053000FD3873EB050002D308F1010801E09218C1
:100540005B41B8F1000F03DA00200146BDE8F08DF1
:1005500000204FF48011064684460EE0171B73EB13
:10056000050705D3121B63EB050306434CEA010C98
:1005700049084FEA300092185B4150EA0107EDD17B
:1005800052EA030012D082EA040083EA050108431C
:1005900005D0101BAB4106D20122002306E0002249
:1005A0004FF0004302E06FF0010253101AEB060017
:1005B0004CEB085110EB0A0041EB0B01BDE8F04D8C
:1005C00000F05BB90EB5C10F80EAE0700844CA07BD
:1005D000002140F233438DE80E000A460B4600F03E
:1005E0005BF903B000BD0EB540F23341029100212A
:1005F000CDE900110A460B4600F04EF903B000BDEC
:1006000000F0004220F00040C10DC0F3160040F49D
:1006100000007F2901DA00207047962903DCC1F130
:100620009601C84001E096398840002AF4D0404243
:100630007047C1F30A5210B5C1F3130140F2FF3302
:1006400041F480119A4201DA002010BD40F2334398
:100650009A42A2F2334203DC524200F0B5F810BDD8
:10066000904010BD00F0004230F000400AD0C10DB3
:1006700001F56071C0F3160042EA0151C20840075B
:1006800011437047002001467047000030B5041E3A
:1006900071F1000404DB4FF00044404264EB0101BF
:1006A000141E73F1000405DB1C464FF00043524258
:1006B00063EB04038B4208BF824230BD01F000436C
:1006C00030B421F0004150EA010206D00A0DA2F533
:1006D0006072C1F31301002A02DC30BC00207047B5
:1006E000440F44EAC104C100E01830BC00EBC25022
:1006F00000F08CB8002801DBC0F10040002901DBCC
:10070000C1F1004181427047002801DBC0F1004087
:10071000002901DBC1F100418842704730B50B462A
:10072000014600202022012409E021FA02F59D4221
:1007300005D303FA02F5491B04FA02F52844151EF5
:10074000A2F10102F1DC30BD2DE9F05F0546002089
:1007500092469B4688460646814640241BE0284632
:1007600041464746224600F02FF853465A46C01AE3
:10077000914110D311461846224600F016F82D1A62
:1007800067EB01084F4622460120002100F00DF8DA
:1007900017EB00094E41201EA4F10104DFDC48469E
:1007A00031462A464346BDE8F09F202A04DB203A22
:1007B00000FA02F1002070479140C2F1200320FAB4
:1007C00003F3194390407047202A04DB203A21FAB2
:1007D00002F00021704721FA02F3D040C2F120025A
:1007E0009140084319467047202A06DBCB17203A70
:1007F00041FA02F043EAE07306E041FA02F3D04026
:10080000C2F1200291400843194670470029A8BF51
:100810007047401C490008BF20F00100704710B429
:10082000B0FA80FC00FA0CF050EA010404BF10BCDE
:10083000704749B1CCF1200421FA04F411FA0CF10B
:1008400018BF012121430843A3EB0C01CB1D4FEA44
:1008500000614FEA102042BF002010BC704700EB3F
:10086000C35010440029A4BF10BC7047401C49006D
:1008700008BF20F0010010BC704710B5141E73F1C2
:10088000000408DA401C41F1000192185B411A4350
:1008900001D120F0010010BD2DE9F04D92469B469C
:1008A00011B1B1FA81F202E0B0FA80F22032904642
:1008B000FFF77BFF04460F4640EA0A0041EA0B01BE
:1008C00053465A46084313D0114653EA010019D043
:1008D000C8F140025046FFF777FF05460E465046E6
:1008E00059464246FFF761FF084305D0012004E066
:1008F00020463946BDE8F08D0020054346EAE07603
:100900002C4337430A986305E40AA0EB0800002251
:10091000FD0A44EA47540A3002D500200146E9E7BF
:10092000010510196941DDE9084500196941BDE873
:10093000F04DA2E7C1F30A52C1F3130140F2FF33B5
:1009400041F480119A4202DA00200146704740F2D9
:1009500033439A42A2F2334202DC5242FFF734BFE1
:10096000FFF723BF30B5041E71F1000404DB4FF024
:100970000044404264EB0101141E73F1000405DBE6
:100980001C464FF00043524263EB0403994208BFF8
:10099000904230BD064C074D06E0E06840F0010390
:1009A00094E8070098471034AC42F6D3FFF7A2FB57
:1009B000542B0008742B000810B5102000F07EF8AE
:1009C000A8B10B490B480068FFF7ACFB0949086068
:1009D000094908480068FFF797FE01D2064801E080
:1009E0000448006803490860102000F061F810BD59
:1009F0000000A040700000200000B44210B520208C
:100A000000F05CF8A8B1254925480068FFF7DCFB39
:100A100023490860234922480068FFF76BFE01D292
:100A2000204801E01E4800681D490860202000F0B1
:100A30003FF8402000F042F8A8B118491A48006871
:100A4000FFF770FB18490860184917480068FFF75E
:100A50005BFE01D2154801E01348006812490860A6
:100A6000402000F025F8802000F028F8A8B10B49BC
:100A70000D480068FFF7A8FB0B49086009490A48C0
:100A80000068FFF737FE01D2064801E0064800681B
:100A900005490860802000F00BF810BD0000A04060
:100AA000700000200000B4C274000020000020424A
:100AB000014908607047000014040140014600200D
:100AC0000022074B1B6803EA0102054B14331B6825
:100AD0000B4013B10AB1012000E000207047000074
:100AE0000004014070B590B004466A4632210DA85A
:100AF00000F04EFE0DA9204600F00DF80DA800F004
:100B000003FE401E86B231460DA800F02BFE0546BE
:100B1000284610B070BD70B504460D4621882846A1
:100B200000F0B7FEA178284600F093FEE178284651
:100B300000F08FFEE278211D284600F092FE284644
:100B400000F0FCFD06463146284600F082FE70BDEE
:100B50002DE9F74F90B0144601200F9011AB012200
:100B60000A21109800F0C8F801A9109800F028F8A0
:100B70008346BBF1000F1DD19DF808909DF84400FD
:100B8000814503D0072013B0BDE8F08F9DF8091010
:100B90009DF80A0041EA00200FFA80FA5046FFF75C
:100BA00011FD0746044A054BFFF72BFC0546FFF7EE
:100BB00085FD20605846E6E79A9999999999B93F39
:100BC0002DE9F04105460C46002084F83700002747
:100BD0000026642000F004FF87E0A86800F094FD80
:100BE00000B982E094F8370000F00800C8B1A868A6
:100BF00000F029FE04F8360F607840F010006070B5
:100C0000363C2046FFF76EFF94F83610884204D039
:100C100000F0F6FE0620BDE8F08100F0F1FE0020B5
:100C2000F9E794F8370000F0040080B1A86800F0FC
:100C30000AFE211DC855781CC7B2E078B84253D1CE
:100C400094F8370040F0080084F837004CE094F83E
:100C5000370000F0020088B1A86800F0F4FDE070F1
:100C6000E0782D2803DD00F0CBFE0520D3E794F8D3
:100C7000370040F0040084F8370035E094F837007E
:100C800000F0010088B1A86800F0DDFDA070A07838
:100C90000A2803DD00F0B4FE0420BCE794F8370016
:100CA00040F0020084F837001EE03EB9A86800F06A
:100CB000CAFD0646052E17D0002615E0052E12D1D6
:100CC000A86800F0C0FD46EA002641F605408642CD
:100CD00001D0002608E0268094F8370040F001009B
:100CE00084F8370000E0002600BF00F097FE0028DF
:100CF0003FF473AF02208EE7F0B58FB005460E4685
:100D000014461F4644F61240ADF804008DF8066004
:100D10008DF80740002003E03A5C02A90A54401C09
:100D2000A042F9DB01A86968FFF7F5FE284601F04B
:100D300067F90FB0F0BD00002DE9F04F87B006460F
:100D40000F4615461C46DDE910894FF0070B05AA32
:100D5000072102A800F01CFD394602A800F079FD29
:100D600029461248FFF736FA0190FFF749FC0FFABF
:100D700080FA514602A800F083FD214602A800F047
:100D800088FD414602A800F084FD0DF115030722FD
:100D900008213046FFF7B0FFB9F1000F02D020461E
:100DA00000F046FE002007B0BDE8F08F00002041B3
:100DB0002DE9F041024600250026002000230024F2
:100DC000002791F803C00CF00F0591F803C00CF058
:100DD000100CBCF1000F03D091F802C04CEA0505DD
:100DE00091F800C0BCF1000F31D0146800202BE056
:100DF0004FF0010C0CFA00F3B1F800C00CEA030646
:100E00009E4220D183004FF00F0C0CFA03F7BC4335
:100E100005FA03FC4CEA040491F803C0BCF1280F66
:100E200006D14FF0010C0CFA00FCC2F814C00AE025
:100E300091F803C0BCF1480F05D14FF0010C0CFA3A
:100E400000FCC2F810C0401C0828D1D31460B1F8CF
:100E500000C0BCF1FF0F34DD546800202EE000F12B
:100E6000080C4FF0010808FA0CF3B1F800C00CEAC6
:100E700003069E4221D183004FF00F0C0CFA03F7BA
:100E8000BC4305FA03FC4CEA040491F803C0BCF12E
:100E9000280F05D100F1080C08FA0CF8C2F81480EC
:100EA00091F803C0BCF1480F07D100F1080C4FF0D6
:100EB000010808FA0CF8C2F81080401C0828CED3AC
:100EC0005460BDE8F08100002DE9FC5F3548006802
:100ED0003549086035480088FFF785FB80460022C9
:100EE000334BFFF700FB06460022324BFFF783FA35
:100EF0000446FFF7E3FB2B49086008460068FFF74C
:100F0000B1FB21F0004104462B4A2C4BFFF7BEFBFE
:100F100002D800202349086022480168224800685E
:100F2000FFF752F98346FFF79DFB06460022244B4C
:100F3000FFF767FACDE900011A480068FFF792FB56
:100F4000064600221F4BFFF75CFA0446DDE900234A
:100F5000FFF7B0F98046FFF7B1FB824651461A48C9
:100F60000068FFF7DFF80446184A21461848006871
:100F700000F0BCF9514614480068FFF7D3F88046EA
:100F8000FFF770FB04460D465046FFF76BFB064625
:100F900032460B460FA0CDE9004501F051F8BDE8FF
:100FA000FC9F0000280000202C0000201C000020D6
:100FB00000005E400000E03F9A9999999999A93FF5
:100FC00000000840000034406C0000200000FA439C
:100FD00000000020594157205049443A206450698C
:100FE000746368203D20252E3166206E657874205C
:100FF0007069746368203D20252E31660D0A00005B
:101000002DE9FC5F3648006836490860364800889C
:10101000FFF7E9FA80460022344BFFF764FA0646F0
:101020000022334BFFF7E7F90446FFF747FB2C4953
:10103000086008460068FFF715FB21F000410446F0
:101040002C4A2D4BFFF722FB02D8002024490860D0
:101050002348016823480068FFF7B6F88346FFF786
:1010600001FB064600224FF08043FFF7CAF9CDE9A5
:1010700000011B480068FFF7F5FA064600221F4BE7
:10108000FFF7BFF90446DDE90023FFF713F98046B7
:10109000FFF714FB8246514619480068FFF742F8F3
:1010A00004461848214602681748006800F070F9A5
:1010B000514613480068FFF735F88046FFF7D2FA2B
:1010C00004460D465046FFF7CDFA064632460B461B
:1010D0000EA0CDE9004500F0B3FFBDE8FC9F000085
:1010E00020000020240000201A000020000064409E
:1010F0000000E03F9A9999999999A93F00004440CE
:1011000068000020140000200000002059415720F2
:101110005049443A2064596177203D20252E31669C
:10112000206E65787420796177203D20252E316608
:101130000D0A00002DE9F0472C482D4908600846AB
:101140000068FFF78FFA804600222A4BFFF759F913
:101150000646294A294BFFF751F90446FFF7AEFA34
:101160002749086027482849086008460068FFF7B3
:1011700079FA8046204A214BFFF743F906460022C0
:101180001C4BFFF73BF90446FFF798FA1F4908602C
:101190001F482049086008460068FFF763FA0646C2
:1011A00000221D4BFFF72DF904461C4A1C4BFFF78C
:1011B00025F98046FFF782FA1A4908601A481B4948
:1011C000086008460068FFF74DFA0646134A144BBC
:1011D000FFF717F9044600220F4BFFF70FF980467F
:1011E000FFF76CFA12490860BDE8F0873FE983BF5A
:1011F00038000020008056409A999999999956C0D4
:101200003C000020E26878BF40000020440000203D
:10121000222282BF4800002000004EC0CDCCCCCCA2
:10122000CC8C50404C000020A4CD7BBF500000204F
:101230005400002010B50446FFF77CFF204600F064
:1012400017F8204600F0F6F810BD000070B504460F
:10125000054801682046FEF7BDFF054603480168C2
:101260002846FEF75FFF70BD480000204C000020BC
:1012700070B505460A4A0021284600F089F8044660
:10128000074A0021284600F031F80646B44201DD45
:10129000204600E030460446204600F0C9FB70BD01
:1012A0000000C84270B50446054801682046FEF7B4
:1012B00091FF0546034801682846FEF733FF70BDDD
:1012C000500000205400002070B504460548016815
:1012D0002046FEF77FFF0546034801682846FEF7D3
:1012E00021FF70BD40000020440000202DE9FC5F7C
:1012F00081460C461646484600F0A6F81E49204690
:10130000FFF7F8F901D21C4800E0204604461B49CB
:101310002046FFF7F9F901D2184800E020460446BC
:10132000174804602046FFF791FF164908601448EB
:10133000016815480068FEF747FF14490190FEF761
:1013400049FF83463146FEF777FF8246FFF78AF969
:1013500021F000410746FFF76CF985B200200090AC
:101360002B4601900748012102684846FFF7E4FC3C
:101370002846BDE8FC9F00000000B4C200002042E7
:1013800074000020640000206C00002000007A44FB
:101390002DE9FC5F81460C461646484600F066F88B
:1013A0001E492046FFF7A6F901D21C4800E020465E
:1013B00004461B492046FFF7A7F901D2184800E070
:1013C0002046044617480460204600F061F816499C
:1013D00008601448016815480068FEF7F5FE1449D6
:1013E0000190FEF7F7FE83463146FEF725FF824661
:1013F000FFF738F921F000410746FFF71AF985B2E7
:10140000002000902B4601900748002102684846C2
:10141000FFF792FC2846BDE8FC9F00000000B4C224
:101420000000B4427000002060000020680000202E
:1014300000007A4410B50446204600F017F8204614
:1014400000F002F810BD000010B50446054A012165
:101450002046FFF77DFB03480068FFF723FF0249A2
:10146000086010BD5C0000206C00002010B5044630
:10147000054A00212046FFF76BFB03480068FFF791
:1014800023FF0249086010BD5800002068000020BA
:1014900070B50446054801682046FEF79BFE0546E8
:1014A000034801682846FEF73DFE70BD3800002065
:1014B0003C00002070B5002100230F22C47804B343
:1014C000154C246804F4E064C4F5E064210AC1F119
:1014D0000403CA40447804FA03F184781440214399
:1014E00009010E4C0678A155047804F01F0501246B
:1014F000AC4005786D11AD0005F1E025C5F800415F
:1015000009E0047804F01F050124AC40044D06787E
:10151000761145F8264070BD0CED00E000E400E0D7
:1015200080E100E002490143024A11607047000077
:101530000000FA050CED00E010B521480088401CC1
:101540001F49088008460088B0F5487F01DD00206B
:1015500008801B48008801280CD11A4A1A491B48E8
:101560000068FFF715FF1A4A002118480068FFF7C6
:10157000BDFE21E012480088C82806D1114A15494D
:1015800012480068FFF704FF16E00D480088B0F528
:10159000C87F06D10E4A10490C480068FFF7A6FE26
:1015A0000AE007480088B0F5167F05D1054A0649CC
:1015B00006480068FFF7ECFE0A2000F039FA10BD7B
:1015C000320000200000C8420000B4C20000002029
:1015D000000048420000B4420000A0C129B1064A00
:1015E000D2690243044BDA6104E0034AD2698243C0
:1015F000014BDA61704700000010024029B1064A31
:1016000092690243044B9A6104E0034A926982435F
:10161000014B9A61704700000010024030B5002174
:101620000022002400232D4D6D6805F00C0121B12E
:10163000042905D0082923D105E0294D056022E0C1
:10164000274D05601FE0254D6D6805F47012234D90
:101650006D6805F48034022505EB92421CB9214DDA
:10166000554305600BE01D4D6D6805F400351DB157
:101670001C4D5543056002E0194D5543056002E0DD
:10168000174D056000BF00BF144D6D6805F0F001F7
:101690000909154D6B5C0568DD4045600F4D6D68AF
:1016A00005F4E061090A104D6B5C4568DD4085601A
:1016B0000A4D6D6805F46051C90A0B4D6B5C4568B5
:1016C000DD40C560054D6D6805F44041890B074D4F
:1016D0006B5CC568B5FBF3F5056130BD00100240D9
:1016E00000127A0000093D008000002090000020D8
:1016F00030B50446204600F01CF80546204600F0B0
:1017000003F8281A80B230BD00B502469088D1880F
:10171000884209DD104600F00CF89188D388C91A78
:10172000491E401A80B200BDD0889188401A80B20C
:10173000F9E701460889401E80B27047F0B50646B9
:101740003046FFF7E1FF07460025002406E0A1B27E
:10175000304600F007F82844C5B2641CBC42F6DBF2
:10176000E8B2F0BD70B504460D462046FFF7CCFF49
:10177000A84201DC002070BDA0882844401C2189BB
:1017800090FBF1F201FB120086B22068805DF2E767
:1017900030B50B46026000218180C180591C018157
:1017A000002104E0002405686C544C1CA1B204899B
:1017B0008C42F7DC30BD10B504462046FFF798FF99
:1017C00002462046FFF7B5FF824201D1012010BD3D
:1017D0000020FCE710B504462046FFF789FF08B952
:1017E000012010BD0020FCE730B504462046FFF77D
:1017F000E2FF08B1002030BDA088401C218990FB89
:10180000F1F201FB1200A080A1882068455C002055
:10181000A288216888542846EDE730B504460D4675
:101820002046FFF7D7FF10B12046FFF7DDFFE08825
:10183000401C218990FBF1F201FB1200E080E1885D
:101840002068455430BD10B504462046FFF7CCFF54
:1018500010BD30B504460D4629462046FFF7DDFF92
:1018600030BDF0B507460D461646002405E0295D5B
:101870003846FFF7D2FF601C84B2B442F7DBF0BDFC
:1018800033B5044601AD022229462046FFF7E9FFA1
:101890003CBD33B5044601AD022229462046FFF780
:1018A000E0FF3CBD10B500F001F810BD0CB5002004
:1018B000019000903348006840F48030314908605E
:1018C00000BF3048006800F4003000900198401CD0
:1018D0000190009818B90198B0F5A06FF1D129488E
:1018E000006800F4003010B10120009001E00020F9
:1018F00000900098012843D12348006840F0100070
:10190000214908600846006820F003000860084686
:10191000006840F0020008601A48406819494860B1
:101920000846406848600846406840F48060486067
:101930000846406820F47C1048600846406840F43F
:10194000E81048600846006840F08070086000BFFA
:101950000C48006800F000700028F9D00948406881
:1019600020F00300074948600846406840F0020044
:10197000486000BF0348406800F00C000828F9D117
:101980000CBD0000001002400020024030B50146AE
:10199000B1F1807F01D3012030BD21F07F40401E96
:1019A0004FF0E022506150170F22002807DA13078A
:1019B0001D0E094B00F00F04241F1D5503E01307F3
:1019C0001C0E064B1C5400BF00204FF0E02290611B
:1019D000072010610020DFE718ED00E000E400E0E0
:1019E00001B50649009808604FF0E020006940F01A
:1019F00001004FF0E021086108BD00003400002024
:101A00000020054908604FF0E020006920F0010047
:101A10004FF0E0210861704734000020034800685F
:101A200008B9012070470020FCE7000034000020C6
:101A300001B503490098086000F02CF808BD0000CB
:101A4000340000200648006828B105480068401EA0
:101A50000349086002E00020014908607047000067
:101A60003400002010B50A4800684FF47A71B0FBCA
:101A7000F1F42046FFF78AFF08B100BFFEE74FF000
:101A8000E020006920F001004FF0E021086110BD66
:101A9000940000204FF0E020006940F001004FF07A
:101AA000E021086100BF064800680028FBD14FF024
:101AB000E020006920F001004FF0E021086170474C
:101AC0003400002010B51348006840F001001149AF
:101AD000086008464068104908400E4948600846BA
:101AE00000680E4908400B4908600846006820F469
:101AF000802008600846406820F4FE0048604FF4EB
:101B00001F008860FFF7CEFE4FF0006004490860B8
:101B100010BD0000001002400000FFF8FFFFF6FEBD
:101B200008ED00E010B540F22551074800F055F8E7
:101B300040B1054800F00CF9C4B204498868214658
:101B4000FFF76BFE10BD000000380140B00400201C
:101B500010B540F22551074800F03FF848B106495A
:101B6000086800F0F5F8C4B2034988682146FFF719
:101B700054FE10BD00440040C008002010B540F2E3
:101B80002551074800F029F848B10649086800F0D7
:101B9000DFF8C4B2034988682146FFF73EFE10BD56
:101BA00000480040D00C002021B1828942F400524C
:101BB000828104E082894DF6FF731A40828170476A
:101BC00002460020B1F5007F00D100BF13880B4012
:101BD0000BB1012000E00020704770B502460024E0
:101BE00000230025002040F66A16B14200D100BF54
:101BF000C1F3421501F01F03012606FA03F3012D7C
:101C000002D19689334006E0022D02D1168A334074
:101C100001E0968A33400C12012606FA04F4168875
:101C2000344013B10CB1012000E0002070BDF0B5CC
:101C30000346002400260025002040F66A17B9421A
:101C400000D100BF1846C1F3421401F01F0601275E
:101C500007FA06F5012C01D10C3004E0022C01D169
:101C6000103000E014301AB107682F43076002E01B
:101C70000768AF430760F0BD2DE9F04786B0054621
:101C80000E460024A24600BFA1460027B08900B13D
:101C900000BF2F462C8A4CF6FF700440F0880443A6
:101CA0002C82AC894EF6F3100440B0883189084389
:101CB000718908430443AC81AC8A4FF6FF4004406D
:101CC000B0890443AC8201A8FFF7A8FC1F488742F3
:101CD00002D1DDF810A001E0DDF80CA0A88900F425
:101CE000004040B10AEBCA0000EB0A10316849001D
:101CF000B0FBF1F807E00AEBCA0000EB0A1031680C
:101D00008900B0FBF1F86420B8FBF0F00401200971
:101D1000642101FB1089A88900F4004040B1322001
:101D200000EBC900B0FBF1F000F00700044308E04D
:101D3000322000EB09106421B0FBF1F000F00F003D
:101D400004432C8106B0BDE8F08700000038014054
:101D500001468888C0F308007047C1F308028280FA
:101D60007047000000B587B0914892490860924AD8
:101D70004FF4FA719148FFF70BFD914A4FF4FA7155
:101D80009048FFF705FD8F488A4988608B48486076
:101D900001218803FFF732FC01210420FFF72EFC0C
:101DA0004FF40070ADF8180003208DF81A001820C9
:101DB0008DF81B0006A98448FEF7FAFF4FF48060F7
:101DC000ADF8180004208DF81B0006A97E48FEF728
:101DD000EFFF4FF4E13002900020ADF80C00ADF8B9
:101DE0000E00ADF81000ADF814000C20ADF8120094
:101DF0004FF4A060FFF796FB25208DF8040001202A
:101E00008DF805008DF806008DF8070001A8FFF792
:101E100051FB02A96648FFF72FFF012240F225512E
:101E20006348FFF704FF01216148FFF7BDFE6748E3
:101E300067490860674A4FF4FA716748FFF7A8FCE2
:101E4000664A4FF4FA716648FFF7A2FC644860499D
:101E500088606148486001214804FFF7BFFB012109
:101E60000420FFF7CBFB0420ADF8180003208DF809
:101E70001A0018208DF81B0006A95348FEF798FF9A
:101E80000820ADF8180004208DF81B0006A94E4864
:101E9000FEF78EFF26208DF8040003208DF8050044
:101EA0008DF8060001208DF8070001A8FFF702FB5E
:101EB0004FF4E13002900020ADF80C00ADF80E00B8
:101EC000ADF81000ADF814000C20ADF8120002A916
:101ED0003E48FFF7D1FE012240F225513B48FFF773
:101EE000A6FE01213948FFF75FFE3E483E490860E3
:101EF0003E4A4FF4FA713E48FFF74AFC3D4A4FF420
:101F0000FA713D48FFF744FC3B4837498860384840
:101F1000486001218804FFF761FB01210820FFF7D9
:101F20006DFB4FF48060ADF8180003208DF81A00A7
:101F300018208DF81B0006A93048FEF739FF4FF432
:101F40000060ADF8180004208DF81B0006A92B488E
:101F5000FEF72EFF27208DF8040003208DF80500E2
:101F60008DF8060001208DF8070001A8FFF7A2FAFE
:101F70004FF4E13002900020ADF80C00ADF80E00F7
:101F8000ADF81000ADF814000C20ADF8120002A955
:101F90001448FFF771FE012240F225511148FFF766
:101FA00046FE01210F48FFF7FFFD07B000BD00000E
:101FB00000380140B0040020AC000020980400204C
:101FC000A1020020A40400200008014000440040B9
:101FD000C0080020BC040020A8080020B106002092
:101FE000B408002000480040D00C0020CC0800209D
:101FF000B80C0020C10A0020C40C0020000C0140D5
:1020000070B5044607E06068FFF7EEFB0546294619
:10201000206800F006F86068FFF776FB0028F2D130
:1020200070BD70B504460D4629462046FFF795FE63
:1020300000BF80212046FFF7C3FD0028F9D070BD06
:102040000FB4054B10B503A9044A029800F0DAF862
:1020500010BC5DF814FB000035290008A800002022
:1020600002E008C8121F08C1002AFAD17047704761
:10207000002001E001C1121F002AFBD170470000BF
:102080002DE9FF5F82B00021DDE90430020DDDF8AB
:1020900040B0034318D044F61050A2F2FF3242433E
:1020A0001514119801281FD0A5EB0B00401C5FEA06
:1020B000000A4FF000064E4FDFF83891B046504608
:1020C00015D5CAF1000413E0119801244AA3012890
:1020D00001D16FEA0B010298119AC0E90031C0E901
:1020E000024206B0BDE8F09FCBF10000DFE70446F6
:1020F0000021404A491842EB0450CDE9001012E09B
:10210000E00707D032463B4640464946FEF779F99C
:102110008046894632463B4610461946FEF771F91D
:1021200006460F466410002CEAD1DDE90401DDE922
:102130000023BAF1000F06DAFEF763F942464B4678
:10214000FEF75FF905E0FEF7CEF942464B46FEF793
:10215000CAF904460E460022284BFEF703FC03D8BA
:102160004FF0FF30014607E00022254B2046314664
:10217000FEF7A0F8FEF7DEFB102409E0002C0ADBD6
:102180000A220023FEF7E0FA039B30321A55641E40
:1021900050EA0102F2D1641C039AC4F11103144401
:1021A000119A012A03D0012208430DD10AE0084305
:1021B00004D000204FF0110B119072E7A3EB0B0538
:1021C0006D1E0DE05B4504DD4FF0000205F10105D9
:1021D00004E003DA4FF00002A5F10105002AECD07B
:1021E00002981199C0E90231C0E9004579E7000081
:1021F000000014400000F03F300000000000F043F9
:102200000000E03F2DE9FF4F95B09B46894606460A
:1022100000250FE2252877D100242746F84A01211E
:10222000059400E0044316F8013F203B01FA03F057
:102230001042F7D130782A2811D06FF02F03307870
:10224000A0F13002092A16D8059A44F0020402EBE4
:10225000820203EB42021044761C0590EFE759F826
:10226000042B0592002A03DA504244F400540590EE
:1022700044F00204761C30782E2816D116F8010F8F
:1022800044F004042A280DD06FF02F023078A0F11A
:102290003003092B09D807EB870302EB4303C71868
:1022A000761CF3E759F8047B761C30786C280FD045
:1022B00006DC4C2817D068280DD06A2814D104E019
:1022C000742810D07A280FD10DE044F400140AE0ED
:1022D00044F4801401E044F440147278824202D144
:1022E00004F58014761C761C307866280BD013DC3D
:1022F000582877D009DC002875D04528F6D0462824
:10230000F4D047281AD19DE118E0632835D064281D
:1023100079D0652812D195E1702873D008DC672840
:10232000F1D069286FD06E280DD06F2806D1B5E0A6
:1023300073282CD0752875D0782874D05A461799F0
:1023400090476D1C75E1C4F30250022809D00328A0
:102350000DD0D9F8001004280DD00D6009F1040942
:1023600067E1D9F80010EA17C1E90052F6E7D9F899
:1023700000100D80F2E70D70F0E719F8041B8DF8DE
:10238000001000208DF80100EA46012003E059F812
:1023900004AB4FF0FF3061074FF0000102D40DE0B5
:1023A00008F101018846B9420FDA8045F8DB1AF8D6
:1023B00008100029F4D108E008F1010188468142A3
:1023C000FADB1AF808100029F6D105985B46A0EB55
:1023D000080721463846179A00F094FA284400EB83
:1023E000080507E04DE029E10DE01AF8010B5A4617
:1023F00017999047B8F10108F7D25B462146384655
:10240000179A13E142E00A220092C4F302524FF0FD
:10241000000A022A08D059F804CB032A4FEAEC71CB
:102420000AD00DE029E02AE009F1070121F00702B6
:10243000F2E802C1914609E00FFA8CFC4FEAEC7118
:10244000042A03D14FFA8CFC4FEAEC71002907DA19
:102450000A460021DCF1000C61EB02012D2202E0B2
:10246000220504D52B228DF80420012203E0E20787
:1024700001D02022F7E7904659E00A2102E010221D
:102480000DE010214FF0000A00910BE010224FF0F8
:10249000000A44F004040827009203E008224FF0E9
:1024A000000A0092C4F30252022A05D059F804CB64
:1024B0000021032A08D009E009F1070121F00702F1
:1024C000F2E802C1914605E01FFA8CFC042A01D112
:1024D0000CF0FF0C4FF00008220728D5702806D01A
:1024E000009B83F0100353EA0A0305D00EE040225C
:1024F0008DF80420012208E05CEA010206D03022B7
:102500008DF804208DF8050002229046009B83F090
:10251000080353EA0A030AD15CEA010201D1620707
:1025200005D530228DF804204FF001087F1E582871
:1025300004D034A003900EA802900DE036A0F9E775
:1025400053466046009AFEF7FFF884460398825C83
:102550000298401E029002705CEA0100F0D10298DD
:1025600006A9081A00F1200A600702D524F4803475
:1025700000E00127574502DDA7EB0A0000E000203C
:1025800000EB0A01009005984144401A0590E003D1
:1025900006D45B462146179A059800F0B3F9054426
:1025A000002706E001A85A46C05D179990476D1CA8
:1025B0007F1C4745F6DBE0030CD55B462146179AA6
:1025C000059800F09FF9054404E030205A46179919
:1025D00090476D1C0099481E00900029F5DC08E02A
:1025E000029802995A460078491C0291179990471F
:1025F0006D1CBAF10001AAF1010AF1DC65E10000ED
:1026000009280100303132333435363738396162C8
:10261000636465660000000030313233343536378C
:1026200038394142434445460000000000F058F963
:102630000544761C307800287FF4ECAD19B02846AC
:10264000BDE8F08F620700D4062709F1070222F0E7
:10265000070CFCE80223E14603F000485FEA080C9F
:1026600002D00FF2702C0DE05FEA045C02D50FF28D
:10267000682C07E05FEAC47C02D00FF2602C01E016
:10268000AFF2700C4FF0FF3823F00043CDF850C08C
:1026900065280CD006DC452809D046281DD04728DF
:1026A0003DD13DE0662818D067287ED138E0002172
:1026B000112F01DB112000E0781CCDE9000106A9F3
:1026C0000EA8FFF7DDFCDDE90F010E9A0391002152
:1026D000009207F1010A04914DE04FF0004000978D
:1026E000CDE9011006A90EA8FFF7CAFCDDE90F022B
:1026F00003920E9B11990022DDF80CA00093049226
:1027000011B9791C00EB010AB7EB0A0004D4C0F13F
:10271000FF3007F1010A0490AAEB0700019044E0A2
:10272000012F00DA01270021112F01DD112000E027
:102730003846CDE9000106A90EA8FFF7A1FCDDE9A6
:102740000F010E9A0391002104910092BA462107CD
:102750000CD40399514500DA8A46BAF1010F05DD20
:10276000009AAAF10101515C302908D0B84202DA7E
:1027700010F1040F06DA0121CDE9011015E0AAF1EC
:102780000101E9E7002805DC049901440491AAEB62
:10279000000102E0411C514500DD8A460499401ABF
:1027A000401C01904FF000400290200704D4019893
:1027B000504501DBCDF8048000208DF84F000298D1
:1027C0000DF14F07B0F1004F25D02B200E9002984D
:1027D0004FF0020800280CDA404202902D200E90A3
:1027E00007E00A210298FDF799FF3031029007F8BF
:1027F000011DB8F10001A8F10108F2DC02980028DF
:10280000EFD1791E0E980870307800F0200040F06B
:10281000450007F8020D12A8C01B00F10708149824
:10282000007800B1012000EB0A01019801EBE07192
:1028300005984144401A401E0590E00306D45B46CB
:102840002146179A059800F05DF805441498007821
:1028500018B15A46179990476D1CE00324D55B4682
:102860002146179A059800F04DF805441CE004989D
:10287000002807DBDDE90301884203DD0098405CA6
:10288000179901E0179930205A469047049805F1AE
:102890000105401C04900198401E019004D12E2097
:1028A0005A46179990476D1CBAF10001AAF1010A26
:1028B000DDDC05E017F8010B5A46179990476D1CAF
:1028C000B8F10001A8F10108F4DC5B462146179A33
:1028D0000598ABE62D0000002B0000002000000052
:1028E0002DE9F041044600251E461746880404D40D
:1028F00005E039462020B0476D1C641EF9D52846F6
:10290000BDE8F0812DE9F041044600251E469046C1
:10291000C80301D5302700E02027880404D505E04E
:1029200041463846B0476D1C641EF9D52846BDE8BF
:10293000F081000070B504460D4600BF07480068EE
:102940000068008800F040000028F7D0E1B2034A98
:1029500012681068FFF701FA204670BD04000020DD
:10296000FFF780F8FFF7FEF923480068FEF762FCE6
:1029700040E0224909688868FEF7C6FE072803DBA5
:102980001E48006800F04AF81B480068FEF752FD38
:102990001B480078F1280FD01948017819A0FFF7DB
:1029A0004FFB174800781A49087008460078A1289C
:1029B00002D000201749088015480078A02804D0CC
:1029C000A1280AD0A22813D10AE01348007818B130
:1029D00009480068FEF74CFC0BE0FEF7ADFD08E08F
:1029E0000D48007818B1FEF70BFBFEF76DFA00E01A
:1029F00000BF00BFBDE7000000000020080000206D
:102A000019000020656E7465722025640D0A0000AF
:102A10003000002032000020180000202DE9FC5F6B
:102A200081467DE0D9F80800FEF7DEFE0446414805
:102A3000007810B9FF2C00D072E03E4800780128E1
:102A40000BD1F12C09D0A02C07D0A12C05D0A22CA1
:102A500003D000203749087062E0374835490978CB
:102A6000445434480078401C3249087008460078C5
:102A7000072854DB30484078304908702E48807869
:102A80002F4908702C49C9782B4A127941EA022053
:102A9000FDF7A9FD07464FF066322A4BFDF7B1FC62
:102AA00005460E4628480088FDF79DFD07464FF075
:102AB0003332264BFDF7A5FC82462A463346FDF706
:102AC000F9FBCDE90001FDF7B4FD1F4908801A4963
:102AD0004979194A927941EA0220FDF784FD0546B9
:102AE0004FF06632174BFDF78CFC074688461848B6
:102AF0000088FDF778FD05464FF03332134BFDF7A4
:102B000080FC82463A464346FDF7D4FBCDE90001FE
:102B1000FDF78FFD0E49088000200649087000BFB0
:102B2000D9F80800FEF7F0FD00287FF47BAFBDE880
:102B3000FC9F0000130000200C0000201900002062
:102B4000180000206666E63F1A0000203333D33FAA
:102B50001C000020742B000800000020AC000000C6
:102B600060200008202C0008AC0000203410000079
:102B700070200008B0040020C0080020D00C002005
:102B800000000000000000000000C84300F1000049
:102B90000000000000000000000000000000000035
:102BA0000000000000000000000000000000000025
:102BB0000000000000000000000000000000000015
:102BC0000000000000000000000000000000000005
:102BD00000000000000000000000000000000000F5
:102BE00000000000000000000000000000000000E5
:102BF00000000000000000000102030401020304C1
:102C0000060708090204060800A24A0400000000A2
:102C1000000000000102030406070809000000008C
:0400000508000101ED
:00000001FF
