:020000040800F2
:10000000A00C002001010008090100080B010008F4
:100010000D0100080F010008110100080000000098
:1000200000000000000000000000000013010008B4
:10003000150100080000000017010008551800080D
:100040001B0100081B0100081B0100081B01000820
:100050001B0100081B0100081B0100081B01000810
:100060001B0100081B0100081B0100081B01000800
:100070001B0100081B0100081B0100081B010008F0
:100080001B0100081B0100081B0100081B010008E0
:100090001B0100081B0100081B0100081B010008D0
:1000A0001B0100081B0100081B0100081B010008C0
:1000B0001B0100081B0100081B0100081B010008B0
:1000C0001B0100081B0100081B0100081B010008A0
:1000D0001B010008711900089D1900081B01000888
:1000E0001B0100081B0100081B010008DFF80CD0F1
:1000F00000F04CFC00480047E5240008A00C00205C
:100100000648804706480047FEE7FEE7FEE7FEE7B1
:10011000FEE7FEE7FEE7FEE7FEE7FEE7D51800088C
:10012000ED000008F0B480EA0102D40F4200B2EB07
:10013000410F02D20246084611464A0042D0C30D82
:10014000DDB2C1F3C752AD1A202D35DAC1F3160165
:1001500041F4000204B15242C5F1200602FA06F150
:100160002A411044B3EBD05F23D0C4B1012DA0EBE2
:10017000C35009DCF0BC4FF0004202EAC352DBB2CC
:1001800000F5000000F0F6BA400000F1807000EBCE
:10019000C350A0F1807040EAD170490009E04908DD
:1001A00041EAC071A0EBC35000F50000400800EB2D
:1001B000C350F0BC00F0D5BA6142012202EB41010C
:1001C000001BF6E7F0BC704781F00041AAE780F021
:1001D0000040A7E780EA010210B502F000434000AA
:1001E00022D04A001FD0010E01EB1261C0F356006D
:1001F000C2F3560240F4000042F40002A0FB0220C9
:1002000000047F39140400D0401C50EA124001D48D
:100210004000491EC2B20C0604EBD010401C40083E
:10022000802A02D003E0002010BD20F00100002948
:1002300000DA0020184310BD30B480EA010202F059
:10024000004530F0004221F0004013D090B1C30DC2
:10025000D40DC2F31601C0F31600E41A41F40001F4
:1002600040F400027D34914201D3641C00E0490057
:10027000002C02DA30BC002070474FF4000000234D
:10028000914201D3891A034340084FEA4101F7D153
:1002900051B1914202D14FF0004105E002D24FF03E
:1002A000010101E06FF0010103EBC450284430BCB0
:1002B00000F057BA2DE9FE4F804681EA0300C00FD7
:1002C0000C46009021F0004123F00045B8EB0200FD
:1002D000A94105D24046214690461C460B4602469F
:1002E00023F00040104347D0270DC7F30A00C3F3A3
:1002F0000A510290401A019040286BDAC3F31300B0
:1003000040F4801B0098924620B10023D2EB030AF0
:1003100063EB0B0B01985946C0F14002504600F0C8
:10032000EFF906460D4650465946019A00F007FA85
:1003300010EB08006141002487EA115284EAE77358
:100340001A4340D0009A62B3019A012A4FEA075239
:1003500015DC001B61EB02014FF0004202EA07527C
:10036000CDE90042001C41F5801132462B4600F0D9
:100370003EFA03B0BDE8F08F40462146F9E7001B86
:1003800061EB0201001C41F5801300185B4120184D
:10039000A2F5001747EB030140EAD570B6196D418D
:1003A00011E06D084FEA360645EAC0754FEA07527C
:1003B000001B61EB0201001C41F5801149084FEA66
:1003C00030000019514132462B4603B0BDE8F04FD2
:1003D00000F0FEB90098012240000023D0EB020299
:1003E00063EBE073009821464FEAE074B8EB00003D
:1003F00061EB0401E9E783F000435BE781F0004132
:1004000058E72DE9FE4F81EA030404F0004421F08F
:10041000004100944FF0000B23F0004350EA010428
:100420005ED052EA03045BD0C3F30A54C1F30A5509
:100430002C44A4F2F3340194A0FB0254C1F3130141
:1004400041F48011C3F3130343F4801301FB02440E
:1004500000FB034E840A970A44EA815447EA835713
:10046000A4FB076802958D0A05FB07854FEA932CCC
:1004700004FB0C542705029D4FEA065847EA16373D
:10048000B5EB08056EEB070C870E920E47EA811755
:1004900042EA8312A7FB0201B6EB0B0164EB0004F6
:1004A0002B0D43EA0C335E1844EB1C50DA465146E0
:1004B000E7FB0201C5F313044FEA0B3343EA14537D
:1004C0004FEA0432019C43EA0603A4F10C040294AF
:1004D000009CCDE900B400F08AF903B0BDE8F08FCC
:1004E00000200146F9E72DE9F04D81EA030404F00C
:1004F000004B21F0004514464FF0000A23F0004164
:1005000050EA050220D054EA01021DD0C5F30A5773
:100510000246C5F31303C1F31300C1F30A5640F4B6
:10052000801543F48013A7EB0608101BD64608F28B
:10053000FD3873EB050002D308F1010801E09218C1
:100540005B41B8F1000F03DA00200146BDE8F08DF1
:1005500000204FF48011064684460EE0171B73EB13
:10056000050705D3121B63EB050306434CEA010C98
:1005700049084FEA300092185B4150EA0107EDD17B
:1005800052EA030012D082EA040083EA050108431C
:1005900005D0101BAB4106D20122002306E0002249
:1005A0004FF0004302E06FF0010253101AEB060017
:1005B0004CEB085110EB0A0041EB0B01BDE8F04D8C
:1005C00000F006B90EB5C10F80EAE0700844CA0712
:1005D000002140F233438DE80E000A460B4600F03E
:1005E00006F903B000BD00F0004220F00040C10D4C
:1005F000C0F3160040F400007F2901DA00207047A4
:10060000962903DCC1F19601C84001E09639884083
:10061000002AF4D040427047C1F30A5210B5C1F32A
:10062000130140F2FF3341F480119A4201DA0020B5
:1006300010BD40F233439A42A2F2334203DC5242ED
:1006400000F06DF810BD904010BD00F0004230F099
:1006500000400AD0C10D01F56071C0F3160042EAF6
:100660000151C208400711437047002001467047FE
:1006700030B5041E71F1000404DB4FF00044404229
:1006800064EB0101141E73F1000405DB1C464FF0FE
:100690000043524263EB04038B4208BF824230BDE9
:1006A00001F0004330B421F0004150EA010206D0CD
:1006B0000A0DA2F56072C1F31301002A02DC30BCFE
:1006C00000207047440F44EAC104C100E01830BC68
:1006D00000EBC25000F045B8002801DBC0F100403B
:1006E000002901DBC1F1004181427047002801DB94
:1006F000C0F10040002901DBC1F100418842704790
:10070000202A04DB203A00FA02F1002070479140D1
:10071000C2F1200320FA03F3194390407047202AC6
:1007200004DB203A21FA02F00021704721FA02F39B
:10073000D040C2F120029140084319467047202A58
:1007400006DBCB17203A41FA02F043EAE07306E0F9
:1007500041FA02F3D040C2F1200291400843194609
:1007600070470029A8BF7047401C490008BF20F00F
:100770000100704710B4B0FA80FC00FA0CF050EAA7
:10078000010404BF10BC704749B1CCF1200421FA28
:1007900004F411FA0CF118BF012121430843A3EB23
:1007A0000C01CB1D4FEA00614FEA102042BF002030
:1007B00010BC704700EBC35010440029A4BF10BC0C
:1007C0007047401C490008BF20F0010010BC704772
:1007D00010B5141E73F1000408DA401C41F1000149
:1007E00092185B411A4301D120F0010010BD2DE9A0
:1007F000F04D92469B4611B1B1FA81F202E0B0FA97
:1008000080F220329046FFF77BFF04460F4640EA15
:100810000A0041EA0B0153465A46084313D01146D9
:1008200053EA010019D0C8F140025046FFF777FFA4
:1008300005460E46504659464246FFF761FF0843BB
:1008400005D0012004E020463946BDE8F08D0020A7
:10085000054346EAE0762C4337430A986305E40AE9
:10086000A0EB08000022FD0A44EA47540A3002D5F2
:1008700000200146E9E7010510196941DDE9084555
:1008800000196941BDE8F04DA2E770B521F00043C1
:1008900003430CD0C1F30A550024D5EB040564EBE7
:1008A0000403D617AD1AB34102DB0020014670BD28
:1008B000201841EB025170BD2DE9F04D00231A467E
:1008C0001B1A8A4103DB00200146BDE8F08DC1F30D
:1008D0000A52C1F3130141F480154FF0000BD10708
:1008E00002D100186D41521E0027044640F2FF114C
:1008F000384601EB620A3E468046024600204FF42D
:100900008011FFF70CFFC2197141BB1846EB0100C3
:10091000B4EB030C75EB000C04D3E41A65EB000593
:1009200017460E46241908F101006D41804634280F
:10093000E3DDF91946EB0600091BA84103D24FF08D
:10094000FF32134601E0002213461BEB070046EB83
:100950000A51BDE8F04DFFF73BBF000030B5041E63
:1009600071F1000404DB4FF00044404264EB0101EC
:10097000141E73F1000405DB1C464FF00043524285
:1009800063EB0403994208BF904230BD064C074D0B
:1009900006E0E06840F0010394E80700984710344F
:1009A000AC42F6D3FFF7A6FBB8300008D8300008F9
:1009B00070B590B004466A4632210DA800F0F0FDF3
:1009C0000DA9204600F00DF80DA800F0A5FD401E71
:1009D00086B231460DA800F0CDFD0546284610B080
:1009E00070BD70B504460D462188284600F059FEBA
:1009F000A178284600F035FEE178284600F031FE67
:100A0000E278211D284600F034FE284600F09EFDC5
:100A100006463146284600F024FE70BD2DE9F74F0A
:100A200090B0144601200F9011AB01220A211098BA
:100A300000F0C8F801A9109800F028F88346BBF12F
:100A4000000F1DD19DF808909DF84400814503D00A
:100A5000072013B0BDE8F08F9DF809109DF80A003B
:100A600041EA00200FFA80FA5046FFF7ABFD074637
:100A7000044A054BFFF7C5FC0546FFF711FE206051
:100A80005846E6E79A9999999999B93F2DE9F04125
:100A900005460C46002084F8370000270026642015
:100AA00000F0A6FE87E0A86800F036FD00B982E0FD
:100AB00094F8370000F00800C8B1A86800F0CBFD3A
:100AC00004F8360F607840F010006070363C204625
:100AD000FFF76EFF94F83610884204D000F098FEBD
:100AE0000620BDE8F08100F093FE0020F9E794F8BD
:100AF000370000F0040080B1A86800F0ACFD211DB3
:100B0000C855781CC7B2E078B84253D194F8370082
:100B100040F0080084F837004CE094F8370000F00B
:100B2000020088B1A86800F096FDE070E0782D28FA
:100B300003DD00F06DFE0520D3E794F8370040F0A8
:100B4000040084F8370035E094F8370000F0010025
:100B500088B1A86800F07FFDA070A0780A2803DDA6
:100B600000F056FE0420BCE794F8370040F0020085
:100B700084F837001EE03EB9A86800F06CFD064618
:100B8000052E17D0002615E0052E12D1A86800F01A
:100B900062FD46EA002641F60540864201D0002665
:100BA00008E0268094F8370040F0010084F8370010
:100BB00000E0002600BF00F039FE00283FF473AFCC
:100BC00002208EE7F0B58FB005460E4614461F464C
:100BD00044F61240ADF804008DF806608DF8074029
:100BE000002003E03A5C02A90A54401CA042F9DB51
:100BF00001A86968FFF7F5FE284601F0A3F80FB0D9
:100C0000F0BD00002DE9F04F87B006460F461546AF
:100C10001C46DDE910894FF0070B05AA072102A841
:100C200000F0BEFC394602A800F01BFD2946124820
:100C3000FFF7D0FA0190FFF7D6FC0FFA80FA514681
:100C400002A800F025FD214602A800F02AFD414639
:100C500002A800F026FD0DF11503072208213046F9
:100C6000FFF7B0FFB9F1000F02D0204600F0E8FD19
:100C7000002007B0BDE8F08F000020412DE9F041D1
:100C8000024600250026002000230024002791F8BA
:100C900003C00CF00F0591F803C00CF0100CBCF170
:100CA000000F03D091F802C04CEA050591F800C08E
:100CB000BCF1000F31D0146800202BE04FF0010C84
:100CC0000CFA00F3B1F800C00CEA03069E4220D1F2
:100CD00083004FF00F0C0CFA03F7BC4305FA03FC3A
:100CE0004CEA040491F803C0BCF1280F06D14FF080
:100CF000010C0CFA00FCC2F814C00AE091F803C021
:100D0000BCF1480F05D14FF0010C0CFA00FCC2F801
:100D100010C0401C0828D1D31460B1F800C0BCF149
:100D2000FF0F34DD546800202EE000F1080C4FF076
:100D3000010808FA0CF3B1F800C00CEA03069E4261
:100D400021D183004FF00F0C0CFA03F7BC4305FAD6
:100D500003FC4CEA040491F803C0BCF1280F05D150
:100D600000F1080C08FA0CF8C2F8148091F803C0DE
:100D7000BCF1480F07D100F1080C4FF0010808FA48
:100D80000CF8C2F81080401C0828CED35460BDE88F
:100D9000F08100002DE9F0472D482E4908600846F3
:100DA0000068FFF752FC804600222B4BFFF729FB1F
:100DB00006462A4A2A4BFFF721FB0446FFF770FC40
:100DC0002849086028482949086008460068FFF754
:100DD0003CFC8046214A224BFFF713FB06460022CB
:100DE0001D4BFFF70BFB0446FFF75AFC2049086038
:100DF00017482049086008460068FFF726FC0646A9
:100E000000221346FFF7FDFA04464FF033321A4B27
:100E1000FFF7F4FA8046FFF743FC184908601248D0
:100E20001749086008460068FFF70FFC06464FF0B8
:100E30003332114BFFF7E5FA044600221346FFF761
:100E4000DDFA8046FFF72CFC0E490860BDE8F0870C
:100E5000D148803F08000020008056409A99999917
:100E6000999956400C000020B06E7F3F1000002082
:100E70001400002018000020333303C01C000020A1
:100E8000200000202400002010B50446FFF782FF58
:100E9000204600F017F8204600F0F8F810BD0000DA
:100EA00070B50446054801682046FFF793F90546EA
:100EB000034801682846FFF735F970BD1800002087
:100EC0001C00002070B505460A4A0021284600F0A3
:100ED0008BF80446074A0849284600F033F80646CE
:100EE000B44201DD204600E030460446204600F0D2
:100EF000A7FC70BD0000C842000034C270B50446B3
:100F0000054801682046FFF765F905460348016872
:100F10002846FFF707F970BD2000002024000020BC
:100F200070B50446054801682046FFF753F90546A9
:100F3000034801682846FFF7F5F870BD100000204F
:100F4000140000202DE9FC5F81460C4616464846F9
:100F500000F0A6F81E492046FFF7BEFB01D21C4850
:100F600000E0204604461B492046FFF7BFFB01D2A4
:100F7000184800E020460446174804602046FFF762
:100F80008FFF164908601448016815480068FFF78C
:100F90001BF914490190FFF71DF983463146FFF70D
:100FA0004BF98246FFF751FB21F000410746FFF75E
:100FB00033FB85B2002000902B46019007480121A9
:100FC00002684846FFF71EFE2846BDE8FC9F000069
:100FD0000000B4C200007042440000203400002031
:100FE0003C00002000007A442DE9FC5F81460C465D
:100FF0001646484600F066F81E492046FFF76CFB8F
:1010000001D21C4800E0204604461B492046FFF759
:101010006DFB01D2184800E02046044617480460E2
:10102000204600F09DF816490860144801681548EC
:101030000068FFF7C9F814490190FFF7CBF8834621
:101040003146FFF7F9F88246FFF7FFFA21F0004139
:101050000746FFF7E1FA85B2002000902B46019089
:101060000748002102684846FFF7CCFD2846BDE846
:10107000FC9F00000000B4C20000B4424000002009
:10108000300000203800002000007A4410B50446EB
:10109000204600F017F8204600F002F810BD0000CE
:1010A00010B50446054A01212046FFF7B7FC034866
:1010B0000068FFF723FF0249086010BD2C000020E4
:1010C0003C00002010B50446054A00212046FFF7E9
:1010D000A5FC03480068FFF723FF0249086010BD24
:1010E00028000020380000202DE9F04104460A20A5
:1010F00000F0A6FB27E02046FFF7C8FF1448016870
:1011000014480068FFF760F80746FFF79EFA21F0E1
:101110000041054600224FF08043FFF7A9FA12D2A2
:101120000D4801680D480068FFF74EF80746FFF7C5
:101130008CFA21F00041054600224FF08043FFF772
:1011400097FA00D200E0D6E700BFBDE8F0810000CA
:10115000440000203C000020400000203800002017
:1011600070B50446054801682046FFF733F8054688
:10117000034801682846FEF7D5FF70BD080000202F
:101180000C0000202DE9F04F89B083460C469146B3
:101190009A465846FFF759FACDE902012046FFF773
:1011A00054FACDE90001DDE9022301F0DBF8002269
:1011B0003A4BCDE90401FFF724F90746384A394B89
:1011C000FFF791F90546FFF76BFACAF80000584699
:1011D000FFF73BFA05460E464846FFF736FA074644
:1011E0002A46334601F0BEF8CDE90401FFF758FA6C
:1011F00008904846FFF729FA074600224FF080433F
:1012000001F08AF905460E465846FFF71EFA0746D2
:1012100000224FF0804301F07FF92A463346CDE9A2
:101220000001FFF747F8CDE9020101F061FECDE9C9
:101230000401FFF735FA07900798FFF706FA07460B
:101240003A460B4618481949FFF74DF9CDE9040114
:1012500000F03AFE0546FFF723FA06900699089833
:10126000FEF760FF0190FFF7F0F905460C4A104BBE
:10127000FFF7C4F80022094BCDE90201FFF7C1F8DE
:101280000746074A074BFFF72EF9CDE90401FFF7A0
:1012900007FA1299086009B0BDE8F08F0080664037
:1012A0004AD8124DFB2109409A999999999915406C
:1012B000FB21F93F30B587B005460C460021284692
:1012C000FEF730FF054600212046FEF72BFF0446BF
:1012D00004A805AB06AA21460090284600F02AFB88
:1012E00002A803AB0090DDE904210698FFF74AFF4E
:1012F000084A094803990068FFF776FE054A064840
:1013000002990068FFF71EFE03480068FFF7ECFE35
:1013100007B030BD00004843000000202DE9F05F19
:1013200081460C462046FFF74DF907460C4A0D4B07
:10133000FFF767F80546FFF7B3F982464846FFF71F
:1013400041F90746064A074BFFF75BF80546FFF7EA
:10135000A7F983465146FFF7ADFFBDE8F09F0000B7
:101360009A9999999999FD3F70B5002100230F2210
:10137000C47804B3154C246804F4E064C4F5E06454
:10138000210AC1F10403CA40447804FA03F18478C5
:101390001440214309010E4C0678A155047804F04D
:1013A0001F050124AC4005786D11AD0005F1E02565
:1013B000C5F8004109E0047804F01F050124AC40A1
:1013C000044D0678761145F8264070BD0CED00E01E
:1013D00000E400E080E100E002490143024A1160BC
:1013E000704700000000FA050CED00E029B1064A44
:1013F000D2690243044BDA6104E0034AD2698243B2
:10140000014BDA61704700000010024029B1064A22
:1014100092690243044B9A6104E0034A9269824351
:10142000014B9A61704700000010024030B5002166
:101430000022002400232D4D6D6805F00C0121B120
:10144000042905D0082923D105E0294D056022E0B3
:10145000274D05601FE0254D6D6805F47012234D82
:101460006D6805F48034022505EB92421CB9214DCC
:10147000554305600BE01D4D6D6805F400351DB149
:101480001C4D5543056002E0194D5543056002E0CF
:10149000174D056000BF00BF144D6D6805F0F001E9
:1014A0000909154D6B5C0568DD4045600F4D6D68A1
:1014B00005F4E061090A104D6B5C4568DD4085600C
:1014C0000A4D6D6805F46051C90A0B4D6B5C4568A7
:1014D000DD40C560054D6D6805F44041890B074D41
:1014E0006B5CC568B5FBF3F5056130BD00100240CB
:1014F00000127A0000093D0050000020600000202A
:1015000030B50446204600F01CF80546204600F0A1
:1015100003F8281A80B230BD00B502469088D18801
:10152000884209DD104600F00CF89188D388C91A6A
:10153000491E401A80B200BDD0889188401A80B2FE
:10154000F9E701460889401E80B27047F0B50646AB
:101550003046FFF7E1FF07460025002406E0A1B270
:10156000304600F007F82844C5B2641CBC42F6DBE4
:10157000E8B2F0BD70B504460D462046FFF7CCFF3B
:10158000A84201DC002070BDA0882844401C2189AD
:1015900090FBF1F201FB120086B22068805DF2E759
:1015A00030B50B46026000218180C180591C018149
:1015B000002104E0002405686C544C1CA1B204898D
:1015C0008C42F7DC30BD10B504462046FFF798FF8B
:1015D00002462046FFF7B5FF824201D1012010BD2F
:1015E0000020FCE710B504462046FFF789FF08B944
:1015F000012010BD0020FCE730B504462046FFF76F
:10160000E2FF08B1002030BDA088401C218990FB7A
:10161000F1F201FB1200A080A1882068455C002047
:10162000A288216888542846EDE730B504460D4667
:101630002046FFF7D7FF10B12046FFF7DDFFE08817
:10164000401C218990FBF1F201FB1200E080E1884F
:101650002068455430BD10B504462046FFF7CCFF46
:1016600010BD30B504460D4629462046FFF7DDFF84
:1016700030BDF0B507460D461646002405E0295D4D
:101680003846FFF7D2FF601C84B2B442F7DBF0BDEE
:1016900033B5044601AD022229462046FFF7E9FF93
:1016A0003CBD33B5044601AD022229462046FFF772
:1016B000E0FF3CBD10B500F001F810BD0CB50020F6
:1016C000019000903348006840F480303149086050
:1016D00000BF3048006800F4003000900198401CC2
:1016E0000190009818B90198B0F5A06FF1D1294880
:1016F000006800F4003010B10120009001E00020EB
:1017000000900098012843D12348006840F0100061
:10171000214908600846006820F003000860084678
:10172000006840F0020008601A48406819494860A3
:101730000846406848600846406840F48060486059
:101740000846406820F47C1048600846406840F431
:10175000E81048600846006840F08070086000BFEC
:101760000C48006800F000700028F9D00948406873
:1017700020F00300074948600846406840F0020036
:10178000486000BF0348406800F00C000828F9D109
:101790000CBD0000001002400020024030B50146A0
:1017A000B1F1807F01D3012030BD21F07F40401E88
:1017B0004FF0E022506150170F22002807DA13077C
:1017C0001D0E094B00F00F04241F1D5503E01307E5
:1017D0001C0E064B1C5400BF00204FF0E02290610D
:1017E000072010610020DFE718ED00E000E400E0D2
:1017F00001B50649009808604FF0E020006940F00C
:1018000001004FF0E021086108BD00000400002045
:101810000020054908604FF0E020006920F0010039
:101820004FF0E02108617047040000200348006881
:1018300008B9012070470020FCE7000004000020E8
:1018400001B503490098086000F02CF808BD0000BD
:10185000040000200648006828B105480068401EC2
:101860000349086002E00020014908607047000059
:101870000400002010B50A4800684FF47A71B0FBEC
:10188000F1F42046FFF78AFF08B100BFFEE74FF0F2
:10189000E020006920F001004FF0E021086110BD58
:1018A000640000204FF0E020006940F001004FF09C
:1018B000E021086100BF064800680028FBD14FF016
:1018C000E020006920F001004FF0E021086170473E
:1018D0000400002010B51348006840F001001149D1
:1018E000086008464068104908400E4948600846AC
:1018F00000680E4908400B4908600846006820F45B
:10190000802008600846406820F4FE0048604FF4DC
:101910001F008860FFF7CEFE4FF0006004490860AA
:1019200010BD0000001002400000FFF8FFFFF6FEAF
:1019300008ED00E030B5039C034D156080F00045D4
:101940001D60216030BD00000000E04110B56FF067
:10195000050409E000212046FFF7E0FC4FF47A700F
:10196000FFF76EFF601C44B2062CF3DD10BD0000D3
:1019700010B540F22551074800F03FF840B1054846
:1019800000F0F6F8C4B2044988682146FFF74DFE1E
:1019900010BD0000003801408004002010B540F266
:1019A0002551074800F029F848B10649086800F0B9
:1019B000DFF8C4B2034988682146FFF736FE10BD40
:1019C000004400409008002021B1828942F4005276
:1019D000828104E082894DF6FF731A40828170474C
:1019E00002460020B1F5007F00D100BF13880B40F4
:1019F0000BB1012000E00020704770B502460024C2
:101A000000230025002040F66A16B14200D100BF35
:101A1000C1F3421501F01F03012606FA03F3012D5D
:101A200002D19689334006E0022D02D1168A334056
:101A300001E0968A33400C12012606FA04F4168857
:101A4000344013B10CB1012000E0002070BDF0B5AE
:101A50000346002400260025002040F66A17B942FC
:101A600000D100BF1846C1F3421401F01F06012740
:101A700007FA06F5012C01D10C3004E0022C01D14B
:101A8000103000E014301AB107682F43076002E0FD
:101A90000768AF430760F0BD2DE9F04786B0054603
:101AA0000E460024A24600BFA1460027B08900B11F
:101AB00000BF2F462C8A4CF6FF700440F088044388
:101AC0002C82AC894EF6F3100440B088318908436B
:101AD000718908430443AC81AC8A4FF6FF4004404F
:101AE000B0890443AC8201A8FFF7A0FC1F488742DD
:101AF00002D1DDF810A001E0DDF80CA0A88900F407
:101B0000004040B10AEBCA0000EB0A1031684900FE
:101B1000B0FBF1F807E00AEBCA0000EB0A103168ED
:101B20008900B0FBF1F86420B8FBF0F00401200953
:101B3000642101FB1089A88900F4004040B13220E3
:101B400000EBC900B0FBF1F000F00700044308E02F
:101B5000322000EB09106421B0FBF1F000F00F001F
:101B600004432C8106B0BDE8F08700000038014036
:101B700001468888C0F308007047C1F308028280DC
:101B80007047000000B587B0614862490860624A4A
:101B90004FF4FA716148FFF703FD614A4FF4FA719F
:101BA0006048FFF7FDFC5F485A4988605B48486021
:101BB00001218803FFF72AFC01210420FFF726FCFE
:101BC0004FF40070ADF8180003208DF81A001820AB
:101BD0008DF81B0006A95448FFF750F84FF48060B9
:101BE000ADF8180004208DF81B0006A94E48FFF739
:101BF00045F84FF4E13002900020ADF80C00ADF84C
:101C00000E00ADF81000ADF814000C20ADF8120075
:101C10004FF4A060FFF7E0FB25208DF804000120C1
:101C20008DF805008DF806008DF8070001A8FFF774
:101C30009BFB02A93648FFF72FFF012240F22551F6
:101C40003348FFF704FF01213148FFF7BDFE374855
:101C500037490860374A4FF4FA713748FFF7A0FC5C
:101C6000364A4FF4FA713648FFF79AFC3448304947
:101C700088603148486001214804FFF7B7FB012123
:101C80000420FFF7C3FB0420ADF8180003208DF8F3
:101C90001A0018208DF81B0006A92348FEF7EEFF56
:101CA0000820ADF8180004208DF81B0006A91E4876
:101CB000FEF7E4FF26208DF8040003208DF80500D0
:101CC0008DF8060001208DF8070001A8FFF74CFBF6
:101CD0004FF4E13002900020ADF80C00ADF80E009A
:101CE000ADF81000ADF814000C20ADF8120002A9F8
:101CF0000E48FFF7D1FE012240F225510B48FFF7B5
:101D0000A6FE01210948FFF75FFE07B000BD0000F5
:101D100000380140800400207C000020680400207E
:101D200071020020740400200008014000440040BB
:101D3000900800208C0400207808002081060020F4
:101D40008408002070B5044607E06068FFF754FC83
:101D500005462946206800F006F86068FFF7DCFBBE
:101D60000028F2D170BD70B504460D4629462046C4
:101D7000FFF703FF00BF80212046FFF731FE002858
:101D8000F9D070BD490050EAC12018BF04204A0DA7
:101D900018BF40F0010040F2FF72B2EB515F08BF84
:101DA00040F00200012808BF052070472DE9F041EE
:101DB0004F1E00EBC7010446D1E9000115461E463F
:101DC00037F006020DD02A463346FEF71AFB7F1E77
:101DD00004EBC703D3E90023FEF76CFA37F00602E1
:101DE000F1D1022F25D0042F13D0062F18BFBDE844
:101DF000F0812A463346FEF704FBD4E90A23FEF7B6
:101E000059FA2A463346FEF7FCFAD4E90823FEF7CE
:101E100051FA2A463346FEF7F4FAD4E90623FEF7D0
:101E200049FA2A463346FEF7ECFAD4E90423FEF7D2
:101E300041FA2A463346FEF7E4FAD4E90223FEF7D4
:101E400039FA2A463346FEF7DCFAD4E90023BDE826
:101E5000F041FEF72FBA0000002213461046014958
:101E6000FEF741BB0000F03F0122FEF70EBDFEF77A
:101E700021BA0022134610461146FEF734BB40F249
:101E8000013200204FF0E041FEF7FFBC024A002083
:101E90001107FEF7FABC000001FDFFFF02E008C8D1
:101EA000121F08C1002AFAD170477047002001E0D4
:101EB00001C1121F002AFBD17047000001490860D0
:101EC00070470000780000202DE9F04D0546DFF84E
:101ED000388221F000408D4F82B00C46404520DB17
:101EE000A0EB080129430BD08949884201DC10D1BD
:101EF0007DB102B028462146BDE8F04DFFF7B4BFE2
:101F0000002CC7BF002001468248394602B0BDE818
:101F1000F08D0120FFF7D2FF02B0BDE8F04DFFF7D2
:101F2000A8BF7D49884244DA7C498142A1BF7948F3
:101F30007B4902B0BDE8F08D2A462346104619467B
:101F4000FEF75FFA8346024676480E460B460621A8
:101F50007844FFF72BFF5A463346FEF752FA0746FE
:101F600071488A465A46334604217844FFF71EFFDB
:101F70005A463346FEF745FA00224346FEF79AF9E1
:101F800002460B4638465146FEF7ADFA2A4623462E
:101F9000FEF737FA654A664BFEF730FA2A462346C3
:101FA000FEF72CFA02B05B4ABDE8F04D5C4BFEF741
:101FB00025BA002C4FF000024BDA4646434628462D
:101FC0002146FEF777F94FF0FF32FEF75EFC04463C
:101FD000024658480D460B4606217844FFF7E6FEB8
:101FE00022462B46FEF70DFA804653488A46224683
:101FF0002B4604217844FFF7D9FE22462B46FEF7F4
:1020000000FA00223346FEF755F906468B46204675
:10201000294600F06DFF04460D4632465B464046B9
:102020005146FEF760FA22462B46FEF7EAF93F4A90
:102030003F4BFEF7E0F922462B46FEF73BF9012223
:10204000FEF723FC02B03B46BDE8F04D314AFEF7F7
:10205000D5B92D4B28462146FEF7D0F94FF0FF3277
:10206000FEF713FC05460E4600F042FF00270C4623
:1020700080463A460B46FEF71DF982468B463A46A5
:10208000234610461946FEF7BCF92A463346FEF7AA
:10209000B5F952465B46FEF726FA824627488B463C
:1020A0002A46334606217844FFF780FE2A46334607
:1020B000FEF7A7F9CDE9000121482A46334604215D
:1020C0007844FFF773FE2A463346FEF79AF900225A
:1020D0000D4BFEF7EFF802460B46DDE90001FEF777
:1020E00002FA42462346FEF78CF952465B46FEF75B
:1020F000E1F83A462346FEF7DDF802B00122BDE8DA
:10210000F04DFEF7C2BB00000000F03FFB2109408C
:102110000000F07F182D44540000E03F0000603CB8
:10212000FB21F93FEC0F000002100000075C1433A4
:1021300026A6913C620F0000780F0000960E00006A
:10214000AC0E00002DE9F84F04460D4621F000408A
:1021500000917349814211DC7249884201DC06D149
:102160002CB120462946BDE8F84FFFF77DBE6E48EA
:10217000002DCCBF6D496E49BDE8F88F6D49814295
:1021800011DD6D498142D8BF4FF0FF366DDD20462D
:102190002946FFF7F7FD042808BFFFF777FE204622
:1021A0002946BDE8F88F6549654F25F00045814215
:1021B00033DD6449814219DD002632464FF0804309
:1021C00020462946FEF776F880468A4601222046B8
:1021D0002946FEF75AFB00223B46FEF70CF9424621
:1021E0005346FEF780F904460D463EE001260022E4
:1021F000BA463B4620462946FEF75CF880460F4625
:102200000022534620462946FEF7F5F842463B4653
:10221000FEF769F904460D4627E04B4981421BDD74
:10222000DFF828A102260022534620462946FEF761
:10223000E8F800223B46FEF73DF880460F460022B4
:10224000534620462946FEF7D6F842463B46FEF75F
:102250004AF904460D4608E0032622462B46002094
:102260003B49FEF740F904460D4622462B461046F0
:102270001946FEF7C6F88B46824602460B46FEF725
:10228000C0F807460246334888460B460621784484
:10229000FFF78CFD52465B46FEF7B3F882462E48A8
:1022A0008B463A46434605217844FFF77FFD3A4680
:1022B0004346FEF7A6F802460B46002E5046594606
:1022C0000CDAFDF7F7FF22462B46FEF79AF801B02D
:1022D00022462B46BDE8F04FFEF790B8FDF7EAFF27
:1022E00022462B46FEF78DF81C4A7A4402EBC603C1
:1022F000D3E90023FEF77FF822462B46FEF77BF852
:10230000174A7A4402EBC603D3E90023FEF776F8B6
:10231000009A002AB8BF81F00041BDE8F88F0000A4
:10232000000010440000F07F182D4454FB21F93FB9
:10233000FB21F9BF0000DC3F0000203E0000F33F1E
:102340000000F03F0000E63F008003400000F83F3F
:102350000000F0BFEE0D0000AC0D00004A0D0000C3
:10236000120D00002DE9F04D9446CCF1000423F04D
:1023700000464CEA0404524F46EAD4749A46884612
:1023800021F00042BC4206D8454240EA050442EA38
:10239000D474BC4204D9BDE8F04D6246FFF767BD76
:1023A000AAF14055A5F17F6555EA0C040BD0022433
:1023B00004EAAA74434DDFF810E144EAD87452EA03
:1023C000000B04D00CE0BDE8F04DFFF7BBBE002CC5
:1023D00014BF012CBDE8F08D022C30D0032C32D07C
:1023E00056EA0C0B0AD0BE4220D1BA4209D126F0DF
:1023F000804622F080423346114617E000291ADB5E
:1024000025E0DFF8C8B0FB44002C04BFDBE9000185
:10241000BDE8F08D012C02BFDBE9000181F0004135
:10242000BDE8F08D022C0AD0032C0CD0BA4212D198
:10243000B8F1000F0BDA23482549BDE8F08D284696
:102440002449BDE8F08D28467146BDE8F08D1D4851
:102450002149BDE8F08D921B12153C2AC4BF1948D2
:102460001D490EDCBAF1000FBEBF12F13C0F002077
:10247000014606DB6246FEF736F821F00041FFF721
:1024800061FE002C08BFBDE8F08D012C04BF81F077
:102490000041BDE8F08D114A114B022C07D0FDF729
:1024A000AAFF2A46BDE8F04D0A4BFDF7A4BFFDF791
:1024B000A2FF2A46BDE8F04D064BFDF79FBF000086
:1024C0000000F07F182D4454FB2109C0A60C000029
:1024D000FB21F9BFFB210940FB21F93F075C1433C5
:1024E00026A6A13CFFF7C6F9FFF74CFB0948006898
:1024F000FEF7CAFC00210846FEF710FF4FF47A7081
:10250000FFF79EF94FF4FA60FFF79AF901E0FFF741
:102510001DFAFCE7000000202DE9F04D1D460C4699
:1025200098B0174621F0004123F00043002814BF63
:102530004FF0010C4FF0000C0CEB440CFE4A0CEB7E
:1025400002064FEA620C66452BD33E0018BF0126F7
:1025500006EB45061644F94A964222D3F84A53EA56
:10256000070C02D0944205D148B918B0002011469A
:10257000BDE8F08D002808BF4FF0000C01D04FF0EF
:10258000010C0CEB440212F5001F0AD8002F14BFF7
:102590004FF0010C4FF0000C0CEB450212F5001F40
:1025A00007D918B03A462B462146BDE8F04DFFF753
:1025B0005EBC0022DFF88CA3002CB8BF534526DA9E
:1025C000DFF884C36345A8BF022220DADFF870C3B6
:1025D0009C451CDCDFF874C30CEB235CBCF1140FCE
:1025E00008DDCCF1340627FA06FC0CFA06F6BE42EA
:1025F0000DD108E05FB9CCF1140623FA06FC0CFA01
:1026000006F69E4203D10CF00102C2F1020251EA29
:10261000000C19D1002D17DA002C18BF022A01D0A6
:10262000012A07D00220FFF749FC18B0BDE8F04DA1
:10263000FFF712BC0220FFF741FCFFF70DFC18B0BA
:1026400081F00041BDE8F08DB7F1000C6CD153452D
:1026500025D104F1804212F5801201BF002800202C
:10266000B74918B008BFBDE8F08DB548884207DC0F
:10267000002DA1BF6046294618B0BDE8F08D07E0E7
:10268000281E05DA80F0004118B06046BDE8F08DE4
:10269000AF497944D1E9000118B0BDE8F08DDFF809
:1026A000A0C2634525D1002D1FDA19B1514512D1C1
:1026B000D8B909E0002840F0EC82A24A214618B0BF
:1026C00062F31E01BDE8F08D0020214618B060F3D2
:1026D0001E01BDE8F08D08DA18B02346BDE8F04DC4
:1026E000024600206146FDF7FEBE18B02146BDE857
:1026F000F08D514518DAB5F1804F0DD0A5F1005C91
:10270000BCF1FF5C10D1B4F1000C0DDB18B06146D8
:10271000BDE8F04D00F0ECBB234618B00246BDE822
:10272000F04D1946FDF76DBE060024F0004C3BD17C
:10273000D9B1514533D1002C06DD002DA1BF0020B9
:10274000514618B0BDE8F08D002C01DD002D1BDBDB
:10275000002C13DA002D11DB012A4FF0000014BF0A
:1027600078497C4918B0BDE8F08D022A18BF002CCA
:102770000AD0012A08D1002C06DA0AE0002CB8BFE2
:10278000002D11DA012A04D0002018B00146BDE85E
:10279000F08D18B000204FF00041BDE8F08DA1F1A0
:1027A0004050B0F17F601AD0012000EBE47050EA95
:1027B000020421D0624C521E4FF0000B104304BFA4
:1027C0004FF0000B644C654883427CDD644A6548E9
:1027D00093421FDD884217DB002D25DB37E0002CFC
:1027E00000DA4AB1022A0CBF01204FF0FF3018B0C6
:1027F000BDE8F04DFDF7E6BE0120FFF75FFB18B026
:10280000BDE8F04DFFF735BB4D4A8A4202DC002D92
:102810000ADC1CE0814202DA002D18DA04E0484BA1
:10282000994220DD002D12DD0220FFF747FBFFF764
:1028300026FB05460E460022534658462146FDF724
:10284000E0FD18B066F31E012846BDE8F08D0220B9
:10285000FFF734FBFFF71AFB0A46214618B062F374
:102860001E01BDE8F08D002230466146FDF7C3FD34
:1028700080460E466FF00102FEF707F84FF0553222
:10288000394BFDF7BBFD42463346FDF7BAFD00224A
:10289000364BFDF7B3FD824642463346049110465F
:1028A0001946FDF7AEFD5246049BFDF7AAFD8A4688
:1028B00000904FF0C0422E4B40463146FDF7A1FD3F
:1028C0002C4A2B4B00E027E0CDE906015146009849
:1028D000FDF797FD82460191274A284B4046314635
:1028E000FDF78FFD5246019BFDF785FD82460B46A5
:1028F00002460591DDE90601FDF7DCFCDDE9062372
:10290000002688463046FDF776FD5246059BFDF7CA
:1029100075FD024600F07EB90020B1F5801F07DA90
:10292000352230466146FDF7B0FF06466FF03400B1
:1029300000EB215024E00000FFFF1F00FFFF0F000D
:102940000000F03F0000F07F0000404301FCFFFF6B
:102950001A0A00000000F0FF0000F0BF0000E04194
:102960000000F043FFFFEF3F5555D53F0000E03F2B
:102970004715F73FFE822B6544DF5DF80BAE543EF2
:10298000A0F2FF300190C1F3130040F07F6141F0ED
:1029900040510291FE498842D8BF002004DDFD4924
:1029A0008142C8BF012001DD0D9008E000200D909C
:1029B0000198401C01900298A0F5801002900299A5
:1029C000F54878440B910D9900EBC100D0E9002344
:1029D0000F9330460A920B99FDF70DFDCDE90601E4
:1029E000DDE90A2130460F9BFDF764FC02460B46E9
:1029F0000020EA49FDF777FD059102460B4600905D
:102A0000DDE90601FDF7FDFC1490E5488A464FF02C
:102A1000000878440299006812904FF0005040EA94
:102A200061010D980F9B01EB804000F50021099199
:102A30000A9A1298FDF7DFFC32460B9BFDF7DEFC8D
:102A400042465346FDF7DDFC06460291404651469C
:102A5000099B129AFDF7D5FCDDE90623FDF7CEFCB4
:102A60003246029BFDF7C7FC059B009AFDF7C9FCA7
:102A70000091149A0490534610461946FDF7C1FC84
:102A800006460246C7480B46029106217844FFF7E6
:102A90008DF9CDE90510029B324610461946FDF727
:102AA000B0FCDDE90532FDF7ACFC05910646534666
:102AB00040461946149AFDF7FDFB009B049AFDF76A
:102AC000A0FC3246059BFDF7F5FBCDE9051042461B
:102AD000534610461946FDF794FC0022B24B029172
:102AE0000A90FDF7E7FBDDE90532FDF7E3FB0E4653
:102AF0004246AD4B4046FDF77EFC029B0A9AFDF72D
:102B00007AFCDDE90532FDF779FC424602910A9034
:102B1000334610465146FDF774FCCDE90601534695
:102B2000149A02990A98FDF76CFC8A460290334683
:102B3000424600990498FDF764FC5346029AFDF75B
:102B4000B9FB82460B4602460591DDE90601FDF719
:102B5000B1FBDDE90623002088460646FDF74BFC65
:102B60005246059BFDF74AFC824609914FF06042B0
:102B70008E4B30464146FDF744FC049006918C4A4A
:102B80008A4B50460999FDF73CFC82460291894ADE
:102B9000894B30464146FDF734FC5246029BFDF717
:102BA00089FB864B7B440D9A03EBC203D3E90023D8
:102BB000FDF780FB0E9007910198FDF703FD05914D
:102BC000DDE9061382460E9A0498FDF773FB7C4AF2
:102BD0007A440D9B02EBC303D3E9002300930292D6
:102BE000FDF768FB5246059BFDF764FB002688460F
:102BF00052463046059BFDF7FEFB009B029AFDF70F
:102C0000FAFB069B049AFDF7F6FB079B0E9AFDF76D
:102C1000F5FB024600200B46029038462946FDF798
:102C2000F0FB824601912B4638461946029AFDF781
:102C3000E2FB32464346FDF7E4FB5246019BFDF7BB
:102C400039FB07468A463246434629460298FDF735
:102C5000D8FB05460E463A465346FDF72BFB594A2C
:102C60008846914221DBA8EB020353EA000210D10F
:102C70002A463346FDF7BFFBCDE90401524A534BC8
:102C800038465146FDF716FBDDE90423FDF766FEE5
:102C900021D20220FFF712F9FFF7F1F80A46214688
:102CA00018B062F31E01BDE8F08D494B28F00042D8
:102CB0009A4210D3474A08EB020353EA00027FF41A
:102CC000C6AD2A463346FDF796FB3A465346FDF716
:102CD00045FE7FF6BCAD0022019228F000403E493F
:102CE0003E4A01EB2051824223DA481C4FF4801106
:102CF00021FA00F040443A4AC0F30A517A44394B71
:102D0000A1F2FF31CB4020EA0303C0F3130040F4EB
:102D10008010C1F11401C84012680190B8F1000F91
:102D2000BCBF4042019028463146FDF764FB054692
:102D30000E462A46334638465146FDF7BBFA4FF059
:102D400000084246284B40460591FDF75AFBCDE965
:102D50000601264A264B40460599FDF752FB009195
:102D600002902A46334640460599FDF744FB3A4611
:102D70005346FDF743FB1F4A1F4BFDF742FB009BE9
:102D8000029AFDF797FA0746884602460B4635E059
:102D90008E9803007AB60B00CA0500000000F03FD1
:102DA0009A060000300500000000084009C7EE3F09
:102DB000FD033ADCF5015B14E02F3EBE0804000081
:102DC000CC03000000009040FE822B654715973C25
:102DD00000CC904000346F3F01FCFFFF0000E03F5B
:102DE000B0030000FFFF0F00432EE63F396CA80C34
:102DF000615C20BEEF39FAFE422EE63FDDE90601B6
:102E0000FDF758FADDE9062305460E46FDF7F3FA0D
:102E10003A464346FDF7F2FA0F462A4633460090FB
:102E200010461946FDF7EDFA824602462E488846BE
:102E30000B4605217844FEF7B9FF52464346FDF79D
:102E4000E0FA2A463346FDF7D9FA80468A463B46E1
:102E500028463146009AFDF7D4FA3B46009AFDF722
:102E600029FA0691009000224FF0804340465146D7
:102E7000FDF7C1FA0F460C904246534628463146AC
:102E8000FDF7BFFA3B460C9AFDF72DFB069B009A17
:102E9000FDF7B1FA2A463346FDF7ADFA0022134B8F
:102EA000FDF7ACFA054601980E4601EB00510815F6
:102EB000002810DC28463146019AFDF7E6FCFEF7B3
:102EC00061FF042808BFFEF7E1FF28463146019A5A
:102ED000FDF7DBFC05460B4618B02A46584621464E
:102EE000BDE8F04DFDF78DBAB80100000000F03FDD
:102EF0002DE9F04106460F46FDF7DEFC041E0D46A7
:102F000018BF0120284320F00040C0F17F6000F18D
:102F1000E040C00F0ED0301C18BF0120384320F015
:102F20000040C0F17F6000F1E040C00F04BF01200D
:102F3000FEF7C4FF20462946BDE8F08100000000EE
:102F4000555555555555C53F7D6FEB0312D6D4BF2A
:102F50005544880E55C1C93F3B8F68B52882A4BF30
:102F600088B20175E0EF493F09F7FD0DE13D023FF1
:102F70004B2D8A1C273A03C0C88A599CE52A004079
:102F800059018D1B6C06E6BF82922EB1C5B8B33FC6
:102F9000000000000000F03F000000000000F83FCB
:102FA00000000000000000000000004003B8E23F05
:102FB000000000000000000006D0CF43EBFD4C3EB7
:102FC000033333333333E33FFFAB6FDBB66DDB3FAC
:102FD0004D268F515555D53F01411DA96074D13FF4
:102FE00065DBC9934A86CD3FEF4E454A287ECA3FEE
:102FF0003E5555555555C53F93BDBE166CC166BF70
:103000002CDE25AF6A56113FF16BD2C541BDBBBE68
:10301000D0A4BE726937663E4FBB610567ACDD3F29
:10302000182D4454FB21E93F9BF681D20B73EF3FEF
:10303000182D4454FB21F93FE2652F227F2B7A3C67
:10304000075C143326A6813CBDCBF07A8807703C20
:10305000075C143326A6913CC4EB98999999C9BF93
:10306000711623FEC671BCBF6D9A74AFF2B0B3BFC8
:103070009AFDDE522DDEADBF2F6C6A2C44B4A2BF88
:103080000D5555555555D53FFF8300922449C23FF4
:103090006E204CC5CD45B73F513DD0A0660DB13F28
:1030A000EB0D76244B7BA93F11DA22E33AAD903F3A
:1030B0000000000000000000D830000800000020E0
:1030C0007C0000009C1E0008543100087C00002099
:1030D000240C0000AC1E000880040020000000004A
:1030E00000000000000000000000000000000000E0
:1030F00000000000000000000000000000000000D0
:1031000000000000000000000000000000000000BF
:1031100000000000000000000000000000000000AF
:103120000000000000000000000000000102030495
:1031300001020304060708090204060800A24A0463
:103140000000000000000000010203040607080957
:04315000000000007B
:0400000508000101ED
:00000001FF
