:020000040800F2
:10000000580C002001010008090100080B0100083C
:100010000D0100080F010008110100080000000098
:1000200000000000000000000000000013010008B4
:10003000150100080000000017010008650B00080A
:100040001B0100081B0100081B0100081B01000820
:100050001B0100081B0100081B0100081B01000810
:100060001B0100081B0100081B0100081B01000800
:100070001B0100081B0100081B0100081B010008F0
:100080001B0100081B0100081B0100081B010008E0
:100090001B0100081B0100081B0100081B010008D0
:1000A0001B0100081B0100081B0100081B010008C0
:1000B0001B0100081B0100081B0100081B010008B0
:1000C0001B0100081B0100081B0100081B010008A0
:1000D0001B010008450C0008710C00081B010008FA
:1000E0001B0100081B0100081B010008DFF80CD0F1
:1000F00000F0CEF900480047D5100008580C002049
:100100000648804706480047FEE7FEE7FEE7FEE7B1
:10011000FEE7FEE7FEE7FEE7FEE7FEE7E50B000889
:10012000ED0000082DE9FE4F81EA030404F00044CD
:1001300021F0004100944FF0000B23F0004350EAFF
:1001400001045ED052EA03045BD0C3F30A54C1F346
:100150000A552C44A4F2F3340194A0FB0254C1F3D9
:10016000130141F48011C3F3130343F4801301FB23
:10017000024400FB034E840A970A44EA815447EA8A
:100180008357A4FB076802958D0A05FB07854FEA94
:10019000932C04FB0C542705029D4FEA065847EAAE
:1001A0001637B5EB08056EEB070C870E920E47EA83
:1001B000811742EA8312A7FB0201B6EB0B0164EB45
:1001C00000042B0D43EA0C335E1844EB1C50DA4656
:1001D0005146E7FB0201C5F313044FEA0B3343EA30
:1001E00014534FEA0432019C43EA0603A4F10C04C1
:1001F0000294009CCDE900B400F0FCF803B0BDE827
:10020000F08F00200146F9E72DE9F04D81EA030463
:1002100004F0004B21F0004514464FF0000A23F093
:10022000004150EA050220D054EA01021DD0C5F376
:100230000A570246C5F31303C1F31300C1F30A566C
:1002400040F4801543F48013A7EB0608101BD64634
:1002500008F2FD3873EB050002D308F1010801E054
:1002600092185B41B8F1000F03DA00200146BDE8A7
:10027000F08D00204FF48011064684460EE0171BD7
:1002800073EB050705D3121B63EB050306434CEA2A
:10029000010C49084FEA300092185B4150EA01070F
:1002A000EDD152EA030012D082EA040083EA05018C
:1002B000084305D0101BAB4106D20122002306E003
:1002C00000224FF0004302E06FF0010253101AEBDE
:1002D00006004CEB085110EB0A0041EB0B01BDE8A6
:1002E000F04D00F078B896230022114600F045B892
:1002F000C1F30A5210B5C1F3130140F2FF3341F4C8
:1003000080119A4201DA002010BD40F233439A4234
:10031000A2F2334203DC524200F016F810BD9040C6
:1003200010BD00F0004230F000400AD0C10D01F5D0
:100330006071C0F3160042EA0151C2084007114340
:100340007047002001467047202A04DB203A21FA3A
:1003500002F00021704721FA02F3D040C2F12002DE
:1003600091400843194670470029A8BF7047401CB8
:10037000490008BF20F00100704710B4B0FA80FCBB
:1003800000FA0CF050EA010404BF10BC704749B1F8
:10039000CCF1200421FA04F411FA0CF118BF012168
:1003A00021430843A3EB0C01CB1D4FEA00614FEA48
:1003B000102042BF002010BC704700EBC350104417
:1003C0000029A4BF10BC7047401C490008BF20F0A2
:1003D000010010BC704710B5141E73F1000408DA58
:1003E000401C41F1000192185B411A4301D120F0F9
:1003F000010010BD2DE9F04D92469B4611B1B1FAB6
:1004000081F202E0B0FA80F22032904600F052F819
:1004100004460F4640EA0A0041EA0B0153465A4699
:10042000084313D0114653EA010019D0C8F1400225
:100430005046FFF789FF05460E465046594642464C
:1004400000F038F8084305D0012004E02046394682
:10045000BDE8F08D0020054346EAE0762C433743A3
:100460000A986305E40AA0EB08000022FD0A44EAAA
:1004700047540A3002D500200146E9E7010510196A
:100480006941DDE9084500196941BDE8F04DA2E781
:10049000064C074D06E0E06840F0010394E80700D1
:1004A00098471034AC42F6D3FFF724FE6C110008D5
:1004B0008C110008202A04DB203A00FA02F1002007
:1004C00070479140C2F1200320FA03F31943904092
:1004D000704770B504460D462188284600F090FA12
:1004E000A178284600F075FAE178284600F071FA04
:1004F000E278211D284600F074FA284600F0E4F95D
:1005000006463146284600F064FA70BDF0B58FB05B
:1005100005460E4614461F4644F61240ADF8040048
:100520008DF806608DF80740002003E03A5C02A9D0
:100530000A54401CA042F9DB01A86968FFF7C9FF13
:10054000284600F069FD0FB0F0BD2DE9F04385B0FD
:1005500006460F4614461D46DDF830804FF006096A
:1005600003AA0621684600F0D9F93946684600F02A
:1005700030FA2146684600F02CFA2946684600F019
:100580003FFA4146684600F03BFA0DF10D030622A2
:1005900007213046FFF7BAFF002005B0BDE8F08321
:1005A0002DE9F84306460F4614469846DDF820909C
:1005B00002250CB145F0800543462A4639463046AF
:1005C000CDF80090FFF7C1FFBDE8F8832DE9F041B9
:1005D000024600250026002000230024002791F871
:1005E00003C00CF00F0591F803C00CF0100CBCF127
:1005F000000F03D091F802C04CEA050591F800C045
:10060000BCF1000F31D0146800202BE04FF0010C3A
:100610000CFA00F3B1F800C00CEA03069E4220D1A8
:1006200083004FF00F0C0CFA03F7BC4305FA03FCF0
:100630004CEA040491F803C0BCF1280F06D14FF036
:10064000010C0CFA00FCC2F814C00AE091F803C0D7
:10065000BCF1480F05D14FF0010C0CFA00FCC2F8B8
:1006600010C0401C0828D1D31460B1F800C0BCF100
:10067000FF0F34DD546800202EE000F1080C4FF02D
:10068000010808FA0CF3B1F800C00CEA03069E4218
:1006900021D183004FF00F0C0CFA03F7BC4305FA8D
:1006A00003FC4CEA040491F803C0BCF1280F05D107
:1006B00000F1080C08FA0CF8C2F8148091F803C095
:1006C000BCF1480F07D100F1080C4FF0010808FAFF
:1006D0000CF8C2F81080401C0828CED35460BDE846
:1006E000F081000070B5002100230F22C47804B30C
:1006F000154C246804F4E064C4F5E064210AC1F1F7
:100700000403CA40447804FA03F184781440214376
:1007100009010E4C0678A155047804F01F05012448
:10072000AC4005786D11AD0005F1E025C5F800413C
:1007300009E0047804F01F050124AC40044D06785C
:10074000761145F8264070BD0CED00E000E400E0B5
:1007500080E100E002490143024A11607047000055
:100760000000FA050CED00E029B1064AD269024307
:10077000044BDA6104E0034AD2698243014BDA6137
:10078000704700000010024029B1064A92690243F6
:10079000044B9A6104E0034A92698243014B9A61D7
:1007A000704700000010024030B5002100220024F4
:1007B00000232D4D6D6805F00C0121B1042905D0F1
:1007C000082923D105E0294D056022E0274D056069
:1007D0001FE0254D6D6805F47012234D6D6805F41A
:1007E0008034022505EB92421CB9214D554305602A
:1007F0000BE01D4D6D6805F400351DB11C4D5543D2
:10080000056002E0194D5543056002E0174D056093
:1008100000BF00BF144D6D6805F0F0010909154DCA
:100820006B5C0568DD4045600F4D6D6805F4E06167
:10083000090A104D6B5C4568DD4085600A4D6D68A6
:1008400005F46051C90A0B4D6B5C4568DD40C5601D
:10085000054D6D6805F44041890B074D6B5CC5681B
:10086000B5FBF3F5056130BD0010024000127A00BF
:1008700000093D00100000202000002030B5044693
:10088000204600F01CF80546204600F003F8281A20
:1008900080B230BD00B502469088D188884209DD1B
:1008A000104600F00CF89188D388C91A491E401AE6
:1008B00080B200BDD0889188401A80B2F9E7014625
:1008C0000889401E80B27047F0B506463046FFF7F3
:1008D000E1FF07460025002406E0A1B2304600F003
:1008E00007F82844C5B2641CBC42F6DBE8B2F0BD90
:1008F00070B504460D462046FFF7CCFFA84201DC48
:10090000002070BDA0882844401C218990FBF1F292
:1009100001FB120086B22068805DF2E730B50B461D
:10092000026000218180C180591C0181002104E006
:10093000002405686C544C1CA1B204898C42F7DC7D
:1009400030BD10B504462046FFF798FF024620460A
:10095000FFF7B5FF824201D1012010BD0020FCE766
:1009600010B504462046FFF789FF08B9012010BDE5
:100970000020FCE730B504462046FFF7E2FF08B14F
:10098000002030BDA088401C218990FBF1F201FBC2
:100990001200A080A1882068455C0020A288216800
:1009A00088542846EDE730B504460D462046FFF74B
:1009B000D7FF10B12046FFF7DDFFE088401C2189FA
:1009C00090FBF1F201FB1200E080E18820684554C1
:1009D00030BD30B504460D4629462046FFF7E3FFFB
:1009E00030BDF0B507460D461646002405E0295DEA
:1009F0003846FFF7D8FF601C84B2B442F7DBF0BD85
:100A000033B5044601AD022229462046FFF7E9FF2F
:100A10003CBD10B500F002F810BD00000CB5002080
:100A2000019000903348006840F4803031490860FC
:100A300000BF3048006800F4003000900198401C6E
:100A40000190009818B90198B0F5A06FF1D129482C
:100A5000006800F4003010B10120009001E0002097
:100A600000900098012843D12348006840F010000E
:100A7000214908600846006820F003000860084625
:100A8000006840F0020008601A4840681949486050
:100A90000846406848600846406840F48060486006
:100AA0000846406820F47C1048600846406840F4DE
:100AB000E81048600846006840F08070086000BF99
:100AC0000C48006800F000700028F9D00948406820
:100AD00020F00300074948600846406840F00200E3
:100AE000486000BF0348406800F00C000828F9D1B6
:100AF0000CBD0000001002400020024030B501464D
:100B0000B1F1807F01D3012030BD21F07F40401E34
:100B10004FF0E022506150170F22002807DA130728
:100B20001D0E094B00F00F04241F1D5503E0130791
:100B30001C0E064B1C5400BF00204FF0E0229061B9
:100B4000072010610020DFE718ED00E000E400E07E
:100B500001B503490098086000F02CF808BD0000BA
:100B60000C0000200648006828B105480068401EB7
:100B70000349086002E00020014908607047000056
:100B80000C00002010B50A4800684FF47A71B0FBE1
:100B9000F1F42046FFF7B2FF08B100BFFEE74FF0C7
:100BA000E020006920F001004FF0E021086110BD55
:100BB000240000204FF0E020006940F001004FF0D9
:100BC000E021086100BF064800680028FBD14FF013
:100BD000E020006920F001004FF0E021086170473B
:100BE0000C00002010B51348006840F001001149C6
:100BF000086008464068104908400E4948600846A9
:100C000000680E4908400B4908600846006820F457
:100C1000802008600846406820F4FE0048604FF4D9
:100C20001F008860FFF7F5FE4FF000600449086080
:100C300010BD0000001002400000FFF8FFFFF6FEAC
:100C400008ED00E010B540F22551074800F03FF8EC
:100C500040B1054800F0F6F8C4B20449886821465E
:100C6000FFF7A1FE10BD0000003801403C04002049
:100C700010B540F22551074800F029F848B106495F
:100C8000086800F0DFF8C4B2034988682146FFF71E
:100C90008AFE10BD004400404C08002021B182892A
:100CA00042F40052828104E082894DF6FF731A40BB
:100CB0008281704702460020B1F5007F00D100BF5D
:100CC00013880B400BB1012000E00020704770B585
:100CD0000246002400230025002040F66A16B14297
:100CE00000D100BFC1F3421501F01F03012606FA2F
:100CF00003F3012D02D19689334006E0022D02D183
:100D0000168A334001E0968A33400C12012606FA17
:100D100004F41688344013B10CB1012000E0002027
:100D200070BDF0B50346002400260025002040F6E3
:100D30006A17B94200D100BF1846C1F3421401F04E
:100D40001F06012707FA06F5012C01D10C3004E03B
:100D5000022C01D1103000E014301AB107682F4383
:100D6000076002E00768AF430760F0BD2DE9F04778
:100D700086B005460E460024A24600BFA1460027C5
:100D8000B08900B100BF2F462C8A4CF6FF7004409A
:100D9000F08804432C82AC894EF6F3100440B088EE
:100DA00031890843718908430443AC81AC8A4FF60A
:100DB000FF400440B0890443AC8201A8FFF7F4FC73
:100DC0001F48874202D1DDF810A001E0DDF80CA039
:100DD000A88900F4004040B10AEBCA0000EB0A10F9
:100DE00031684900B0FBF1F807E00AEBCA0000EBFC
:100DF0000A1031688900B0FBF1F86420B8FBF0F00C
:100E000004012009642101FB1089A88900F4004035
:100E100040B1322000EBC900B0FBF1F000F0070058
:100E2000044308E0322000EB09106421B0FBF1F02C
:100E300000F00F0004432C8106B0BDE8F0870000ED
:100E40000038014001468888C0F308007047C1F3AC
:100E5000080282807047000000B587B0614862498F
:100E60000860624A4FF4FA716148FFF757FD614A22
:100E70004FF4FA716048FFF751FD5F485A498860A6
:100E80005B48486001218803FFF77EFC01210420B4
:100E9000FFF77AFC4FF40070ADF8180003208DF8CE
:100EA0001A0018208DF81B0006A95448FFF78EFB86
:100EB0004FF48060ADF8180004208DF81B0006A9DF
:100EC0004E48FFF783FB4FF4E13002900020ADF86D
:100ED0000C00ADF80E00ADF81000ADF814000C20B9
:100EE000ADF812004FF4A060FFF734FC25208DF818
:100EF000040001208DF805008DF806008DF807002C
:100F000001A8FFF7EFFB02A93648FFF72FFF0122E8
:100F100040F225513348FFF704FF01213148FFF724
:100F2000BDFE374837490860374A4FF4FA713748F1
:100F3000FFF7F4FC364A4FF4FA713648FFF7EEFC3F
:100F40003448304988603148486001214804FFF73F
:100F50000BFC01210420FFF717FC0420ADF818005A
:100F600003208DF81A0018208DF81B0006A92348CD
:100F7000FFF72CFB0820ADF8180004208DF81B00AB
:100F800006A91E48FFF722FB26208DF80400032047
:100F90008DF805008DF8060001208DF8070001A8E6
:100FA000FFF7A0FB4FF4E13002900020ADF80C00F9
:100FB000ADF80E00ADF81000ADF814000C20ADF83F
:100FC000120002A90E48FFF7D1FE012240F225517E
:100FD0000B48FFF7A6FE01210948FFF75FFE07B0A7
:100FE00000BD0000003801403C0400203800002013
:100FF000240400202D0200203004002000080140BD
:10100000004400404C080020480400203408002020
:101010003D0600204008002070B5044607E06068E7
:10102000FFF7A8FC05462946206800F006F860682E
:10103000FFF730FC0028F2D170BD70B504460D46B4
:1010400029462046FFF703FF00BF80212046FFF717
:1010500031FE0028F9D070BD02E008C8121F08C197
:10106000002AFAD170477047002001E001C1121F29
:10107000002AFBD1704700002DE9F04F87B083466E
:101080008A465046FFF72FF98046FFF74AF9CDE927
:1010900004015846FFF727F90190FFF742F980460F
:1010A00000220A4BFFF73EF8CDE90201DDE90423F7
:1010B000FFF7AAF806460022054BFFF733F804466F
:1010C000FFF716F980B207B0BDE8F08F00807640D8
:1010D00000408F4008B5FFF755FDFFF7BDFE39E032
:1010E00001201D4908701D48008800901C48038895
:1010F000084602781B4801781B480068FFF750FA41
:101100001748018815480088FFF7B6FF0446FFF727
:101110001FFD4FF47A70FFF71BFD00200E49087089
:101120000E48008800900E480388084602780D4853
:1011300001780D480068FFF733FA0948018807482D
:101140000088FFF799FF0446FFF702FD4FF47A701D
:10115000FFF7FEFCC4E70000080000200A000020A2
:101160000600002005000020000000208C1100086F
:10117000000000203800000058100008C4110008CA
:1011800038000020200C0000681000083C040020FB
:101190000000C80000000100000000000000000086
:1011A00001020304010203040607080902040608F9
:1011B00000A24A0400000000000000000102030435
:0411C000060708090D
:0400000508000101ED
:00000001FF
